:020000040800F2
:1000000000400020411001089199000893990008D0
:1000100000000000000000000000000000000000E0
:10002000000000000000000000000000959900089A
:10003000000000000000000097990008999900084E
:100040009110010891100108911001089110010808
:1000500091100108911001089110010891100108F8
:1000600091100108A199000891100108B9990008A0
:10007000911001089110010891100108D199000810
:1000800091100108911001089110010891100108C8
:1000900091100108911001089110010891100108B8
:1000A00091100108911001089110010891100108A8
:1000B000911001089110010891100108E1990008C0
:1000C0000448054B10B5834203D0044B002B00D0ED
:1000D000984710BDDC030020DC0300200000000076
:1000E00006480749091A8B10C90FC91810B54910DD
:1000F00003D0044B002B00D0984710BDDC03002038
:10010000DC0300200000000010B5074C2378002B12
:1001100009D1FFF7D5FF054B002B02D0044800E0C2
:1001200000BF0123237010BDDC030020000000008D
:1001300094100108054B10B5002B03D00449054865
:1001400000E000BFFFF7CCFF10BDC046000000007C
:10015000E00300209410010870B50C4D0C4E761B86
:10016000B61005D0002408CD01349847A642FAD134
:1001700010F090FF074D084E761BB61005D00024F6
:1001800008CD01349847A642FAD170BDA4210108D8
:10019000A4210108A4210108A8210108F0B5C64640
:1001A00000B50F2A43D90B00032603431E400C0061
:1001B0000300002E40D11500103D2D09AC462D0145
:1001C000A846804400E03B00676825685F60E768F8
:1001D0001D60DF601F00A56810379D601034434527
:1001E000F1D165460F230C2401352D014919134027
:1001F0004519144223D08C59AC5104369C1B032C56
:10020000F9D80324043B9B0801339B002240ED18DE
:10021000C918561E002A07D0002300E02300CA5C3C
:100220005C1CEA549E42F9D104BC9046F0BD050026
:10023000561E002AF0D1F7E7561E0500ECE71A001B
:10024000F6E7C046F0B5C64600B588420CD98B1813
:10025000984209D2531E002A03D0CA5CC254013B03
:10026000FBD204BC9046F0BD0F2A0CD80500561EE8
:10027000002AF6D0002300E02300CA5C5C1CEA548C
:100280009E42F9D1EDE70B00032603431E400C000C
:100290000300002E2ED11500103D2D09AC462D0176
:1002A000A846804400E02B001D00276810351F6021
:1002B00067685F60A7689F60E7681034DF60434548
:1002C000F1D165460F230C2401352D014919134046
:1002D0004519144211D08C59AC5104369C1B032C87
:1002E000F9D80324043B9B0801339B00ED18C9187F
:1002F0002240BCE7561E0500BCE71A00B7E7C0461F
:10030000F0B5050083074AD0541E002A44D0CEB26F
:100310000300032202E00135013C3DD301332E707E
:100320001342F8D1032C2FD9FF220A40150215439E
:100330002A0415430F2C35D92700103F3F093E01F1
:10034000B4461E001A00103666441560556095606C
:10035000D5601032B242F8D10F260C2201373F018E
:100360002640DB193700224217D03E1FB608B400E2
:10037000A4461A001C1D644420C2A242FCD10324DE
:100380000136B6009B193C40002C05D0C9B21C199F
:10039000197001339C42FBD1F0BD3400F4E7140026
:1003A0000300BFE72700E0E7F0B5CE4600B588B010
:1003B0001D001700129C0023002D04DA802109067D
:1003C0006B181D002D23109A1370662C23D0462C19
:1003D00021D0202322009A43452A48D007AB04931A
:1003E00006AB0393119B3A0002930E9B01930223E9
:1003F00000932B0002F038FB0600672C49D10F9BBD
:10040000DB0748D4079B3000139A9B1B136008B08E
:1004100004BC9146F0BD07AB049306AB0393119B5C
:100420003A0002930E9B0193032300932B0002F0EA
:100430001BFB0E9B0600994633788144302B2DD050
:10044000119B1C684C44002300223800290006F050
:100450007FFB23000028D6D1079B9C42D3D93021B3
:100460005A1C07921970079BA342F9D3CBE70E9B46
:100470003A0001330E9307AB049306AB0393119B31
:1004800002930E9B0193022300932B0002F0ECFADF
:100490000600472CB3D00E9BF418D4E700220023AB
:1004A0003800290006F054FB0028C9D101240E9B16
:1004B000E41A119B1C60C5E7F0B54F46D646464688
:1004C000C0B5831C99469A4682B007000C000270A2
:1004D0002B23002901DA4C4202337B70092C2EDDDC
:1004E00007236B4498461D0001E0350004000A21F3
:1004F000200006F017FB6E1E3031317020000A21FB
:1005000006F02AFA632CF0DC3030AA1EC0B210705C
:1005100042450CD2494600E01078013208700131A2
:100520004245F9D109266E44761B4E44B2465346E5
:10053000D81B02B01CBC90469946A246F0BD3023A1
:100540003034BB703B1D9A46FC70F0E7F0B5DE46D8
:1005500057464E464546E0B591B01F001A9B0C0029
:1005600098461600050003F099FE036818000A93E8
:1005700000F09CFD00230B900E93237E07229946EA
:10058000236841469A4643461B68073393431A0043
:1005900008320A601A685B689046A264E36401222C
:1005A0009B465B005B0809935242B84B4046099951
:1005B00008F0EAFC002809D10122B44B524240461F
:1005C000099906F0D5FA002800D188E042465B463A
:1005D0004046594608F0D8FC002800D09FE280230E
:1005E00051466268DB000B43511C30D049466729F5
:1005F0006FD047296DD00021236006910EA9059187
:10060000494604A804910DA984460391232161441D
:1006100001930092029142465B4628008A46FFF70A
:10062000C3FE80464B460D99652B39D82000013911
:100630004A4650300D91FFF73FFF0E9A834613183C
:100640002361012A00DCC3E10133236139E0073271
:1006500062600021236006910EA90591494604A815
:1006600004910DA9844603912321614401930092D2
:100670005B464246029128008A46FFF795FE2023FA
:100680004A4680469A43472ACCD10D99CB1C00DBC1
:100690007DE04B46023BDBB299464B46652BC5D904
:1006A000662B00D17DE00E9B8B4200DC85E00122B1
:1006B000002901DC0132521A9B18236100239B465A
:1006C000A16553461B78002B21D043232D22E254F1
:1006D0001DE0002A00D078E001226260B9E7002224
:1006E00000234046594606F039FA002802D0432339
:1006F0002D22E2544B46472B50D9654B9846032395
:100700005246236101339A4300239B462260330003
:1007100000970FAA2100280000F022FA431C2DD0D8
:1007200023685A0500D570E023694246310028004D
:10073000B847431C22D022680F98E368920760D51F
:100740001A1A002A5DDD19239946002398463B00BA
:10075000A14437002E004D46A1464446984606E087
:100760004B460F98DB6801341A1AA24249DD012377
:100770002A0039003000C047431CF1D1012040421B
:1007800011B03CBC90469946A246AB46F0BD6368AA
:10079000994200DD7DE76723994684E73D4B984603
:1007A000ADE76368002900DC17E12161002B00D16F
:1007B0004AE101335B18236180E723682161DB078D
:1007C00000D47BE74B1C236178E70021236006916E
:1007D0000EA90591494604A804910DA984460391E8
:1007E000232161440291019300925B464246280016
:1007F0008A46FFF7D9FD0D998046CB1C00DA48E701
:10080000C5E79842BCDA1800BAE74A46652A45D9D6
:10081000A06CE16C0022002306F09AF9002800D1B8
:1008200084E001231C4A31002800B847431CA5D0AE
:100830000D9B0E9A934203DB2268D30700D47BE71B
:100840000B9B0A9A31002800B847431C96D01A2304
:100850009946002398460E9BA144012B00DC6AE7D1
:100860003B0037002E004D46A1464446984605E021
:100870000E9B0134013BA34200DCF7E001232A0078
:1008800039003000C047431CF2D177E7FFFFEF7F0C
:100890002C20010828200108201D01080E9A012A99
:1008A00000DC80E00123424631002800B847431CA9
:1008B00000D163E70B9B0A9A31002800B847431C1C
:1008C00000D15BE7A06CE16C0E9B002299460023EF
:1008D00006F03EF9002871D01A239A460023984664
:1008E0004B46A244012B17DDA1464446B8463700CB
:1008F0002E00554604E00E9B0134013BA34207DD68
:1009000001232A0039003000C047431CF3D135E7EA
:1009100035004C463E00474622005B4650323100CF
:100920002800B847431C00D005E727E70D9B002BA4
:1009300058DDA36D9A460E9B9B46534500DD88E02B
:100940005B46002B08DD424631002800B847431CB7
:1009500000D113E7A36D9A465B46DB435A46DB178B
:100960001A40534693469B1A1A2294460022A444E6
:1009700061469146002B00DC83E0A2464C46B94616
:1009800037002E000D0006E053465A469B6D013499
:100990009A1AA24270DD01232A0039003000C847AC
:1009A000431CF1D1EAE6DB0700D57BE70123424691
:1009B00031002800B847431CAED1DFE64B46424623
:1009C000013B013231002800B847431CA4D1D5E6D1
:1009D0002268D20700D474E636E6002B3BD09A1C7E
:1009E00022616BE601235B4A31002800B847431CB3
:1009F00000D1C3E60D9B0E9A134332D00B9B0A9A8B
:100A000031002800B847431C00D1B7E61A239A46A4
:100A1000002399460D9BA244002B00DB8FE03B0096
:100A200037002E005546A2464C46994604E00D9BE1
:100A300001345B42A3427EDD01232A0039003000ED
:100A4000C847431CF3D199E62268D20700D435E6A3
:100A5000AFE6D34674E720680122C007C0D59A1CD0
:100A6000BEE72268D30700D466E6C7E74C463500E8
:100A700022683E0047465FE6350054463E009A46EF
:100A80004F460D9A0E998A4202DB2368DB0709D58F
:100A90000B9B0A9A31002800B847431C00D16DE631
:100AA0000E990D9A8B1A9946524502DC52468A1AC3
:100AB00091464A46002A0BDD42464B4652443100DD
:100AC0002800B847431C00D158E60E9B0D9A9B1A8C
:100AD0004A46D2434946D21711401A229246002272
:100AE00089465B1AA2449046002B00DC23E63B00BB
:100AF00037002E005546A2464446984607E00D9A18
:100B00000E9B01349B1A4A469B1AA3421CDD01230B
:100B10002A0039003000C047431CF0D12EE65B4666
:100B2000002B02DA43232D22E2544B46472B08D9EF
:100B3000094B9846E3E5350054463E004F460E9B70
:100B4000F3E5064B9846DAE55446350022683E0048
:100B50004746F1E5201D010830200108681D010805
:100B6000F0B54F464646D646C0B51F00089B914695
:100B700098468A680B6906000C00934200DA13005D
:100B80004A4613604322A25C002A02D04A4601333F
:100B9000136023689A065AD54B461B6806209A1C98
:100BA0004B461A6023681900184208D1E1680025F5
:100BB0008A1A19218A461900A244002A3FDC4323DD
:100BC000E35C5A1E93418A060AD53020E11843316E
:100BD000087045215A1C615CA2184332023311701F
:100BE0002200390043323000C047431C19D006238D
:100BF0002068A26821690340042B30D08A423ADD84
:100C000000239946521A91441A34002502E0013516
:100C10004D4530DA0123220039003000C047431C23
:100C2000F5D1012040421CBC90469946A246F0BD39
:100C30004B46E2681B680135D31AAB4220DD012325
:100C4000524639003000C047431CF1D1E9E7062283
:100C50001A4212D04323E35C5A1E9341C0E74B462D
:100C6000E0681B68C31AD843C017184081468A42FF
:100C7000C8DC002BC8DC0020D5E74A46126895E79F
:100C800043232168E35C5A1E93418A069DD4A7E75B
:100C9000F0B557469A4643239C464E464546DE46A7
:100CA0008C446346E0B587B003930B7E9146804643
:100CB0000C00109A6E2B00D1D8E000D871E0732B95
:100CC00000D11AE100D881E0752B00D1FFE0782B2C
:100CD00000D00BE10B6878204521605494498B4685
:100CE000116840C91160180603D4580601D53604AE
:100CF000360CDA0702D52022134323601027002E7A
:100D000000D1C2E043230022E2546368A360002BB9
:100D100000DAC5E00422216891432160002E00D052
:100D200083E0002B00D0BDE0039D082F00D18CE0B4
:100D3000039B5B1B2361534605AA009321004B468E
:100D40004046FFF70DFF431C22D023692A00494685
:100D50004046D047431C1BD022680598E3689207A1
:100D600000D47FE01A1A002A00DC7BE02600002570
:100D7000193606E0E368059801351A1AAA4200DC24
:100D800070E00123320049464046D047431CF1D170
:100D90000120404207B03CBC90469946A246AB4673
:100DA000F0BD632B00D184E01FD8002B69D0582BF5
:100DB00000D09BE0452163545E4923688B4611684F
:100DC00040C91160180600D48FE792E76F2B7ED0E0
:100DD000702B00D08AE02023096878200B4345213E
:100DE0002360605452498B467AE7642B01D0692B0B
:100DF0007CD111682368081D10601D064AD50A6859
:100E00001600002A03DB4B4B0A279B467DE7432253
:100E10002D21A15462687642A260002A02DB0422DE
:100E200093432360434B0A279B46039D00E0060043
:100E30003900300005F08CFD5B465B5C013D2B709A
:100E4000BE42F4D2082F00D072E72368DB0700D43B
:100E50006EE763682269934200DD69E73023013D54
:100E60002B7065E7984295DA180093E713680968D4
:100E70001D1D606915601B680E0601D449064BD420
:100E800018600023039D236155E7202322689A43BD
:100E9000226037E75D06B2D500228E5E3200B0E7F1
:100EA000002EC2D15B4625001A7842234235E25417
:100EB0003BE713682500191D11601A684223E254AC
:100EC000413B4235236143230022E25433E711685A
:100ED00020680D1D1560060601D440061ED40E685C
:100EE0006F2B1DD0134B0A279B460BE74222250090
:100EF000A354012342352361E5E71368191D1160EE
:100F00001D6862680021280003F006FA00280BD053
:100F1000401B60602061D6E71880B2E70E88DFE7EB
:100F2000044B08279B46EDE660682061CBE7C0468E
:100F300034200108BC1F010808B410B504009DB09E
:100F4000002A31DB822302A89B0083810291016188
:100F5000002A14D00123013A5B4282604261C381BE
:100F6000010020AB1F9A2000019304F033F9431CC9
:100F700001DA8B2323600023029A13700FE0012310
:100F80005B4282604261C381010020AB1F9A200056
:100F9000019304F01FF9431C01DA8B2323601DB079
:100FA00010BC08BC01B018478B23036001204042ED
:100FB000F5E7C0460CB430B51D4B9DB01D68002947
:100FC00031DB822302AC9B00A381029020610029C7
:100FD00014D0012301395B42A1606161E381209A51
:100FE00021AB21002800019304F0F4F8431C01DA3E
:100FF0008B232B600023029A13700FE001235B42C6
:10100000A1606161E381209A21AB21002800019356
:1010100004F0E0F8431C01DA8B232B601DB030BCD8
:1010200008BC02B018478B2301202B604042F5E733
:10103000000000200CB400B59DB002910691094952
:101040001EAB07910491084904CB059102A90193B5
:1010500004F0C0F80023029A13701DB008BC02B05F
:101060001847C046FFFFFF7F0802FFFF0EB400B520
:101070000B499CB0079104910A491DAB05910A499F
:1010800004CB02900690086802A9019304F0A2F82C
:101090000023029A13701CB008BC03B01847C04666
:1010A000FFFFFF7F0802FFFF0000002010B583074D
:1010B00027D00378002B26D00300032102E01A7802
:1010C000002A1CD001330B42F9D119680F4A104C89
:1010D0008A188A4322420FD1043319680B4A8A18AE
:1010E0008A43224208D104331968084A8A188A437D
:1010F0002242F1D000E001331A78002AFBD1181AFD
:1011000010BD0300E1E70020FAE7C046FFFEFEFE47
:1011100080808080F0B59446002A1AD000250F4ABE
:10112000032706E0E41A16D1002B10D00135AC4598
:101130000FD0445D135D3B40012B00D120344B5D4B
:10114000D65C3E40012EEDD12033E31AEED01800DC
:10115000F0BD0023FBE72300F9E7C046B11001080A
:1011600010B500290BD00378002B0CD044180300D5
:1011700002E01A78002A04D00133A342F9D1080012
:1011800010BD191AFBE70021F9E7C04670B516003B
:101190000D0003F0D7FC002E0DD06B236A00520D1A
:1011A0009B1A002B07DD0024034A1B059D182B000A
:1011B000220007F0EBF870BD0000F03FF0B5DE460E
:1011C0004E4657464546E0B51E000023A3B01E9389
:1011D000444B81461B688B461800079300249246B7
:1011E000FFF764FF0023049305945B461D931C786E
:1011F00008903D491D002D2C58D8A2008A589746CA
:1012000001220B922022190091430A00002108912B
:10121000452A00D058E23300099A0343134300D013
:101220002FE25346002B01D05A461A6000260027B1
:101230003000390023B03CBC90469946A246AB46EC
:10124000F0BD01220A925D1C1D955C78002CE8D04F
:1012500000230993302C2FD02300303BDAB2092A27
:1012600001D900F07DFC0022002700261100380083
:101270000CE087003F187F00D8190136AA191D928B
:10128000AC5D2300303BDFB2092F2FD8082EF0DDF4
:101290008A00521852009918EFE700220A92D2E70A
:1012A00001331D931C781D002D2CA6D900230A9311
:1012B00000230993302CCFD16A78582A01D100F04D
:1012C000C4FC6B1C782A01D100F0BFFC1D001D93EB
:1012D0002C780133302CF9D0002C00D1AEE1012361
:1012E0000993B9E7D8130108B81101088846070027
:1012F00007991000089A04F0D7F8002800D185E17A
:1013000020239C43452C00D1B6E10023B34608932B
:101310000793089B079A9B1A0B93002E00D15E46F9
:101320005C46102C00DD1024380007F0B1FE5B464F
:1013300004900591092B15DD2200C84B093AD20013
:101340009B181A685B6807F021F8049005914046E5
:1013500007F09EFE02000B000498059906F0A6F81F
:10136000049005915B460F2B00DDEEE10B9B002BFB
:1013700001D100F0F2FB0B9B002B01DC00F0C0FC64
:10138000162B01DC00F000FD5A4625239B1A0B9A10
:10139000934201DB00F075FD5B461C1B0B9B9C46DA
:1013A00064440F2323400AD0AC49DB00C918086805
:1013B0004968049A059B06F0E9FF049005910F2304
:1013C0009C4300D06AE3002309935B4600973200F8
:1013D0002900484603F09CF88346002801D100F01C
:1013E00051FC0B9A07990898D3170C1A23400E93B7
:1013F000D343DB171A4000239846079353461492B1
:1014000015935B464846596802F0C6FF031E0890D4
:1014100000D150E25A46594612690C33023292000A
:101420000C311800FEF7BAFE049E059F20AB019315
:101430001FAB009332003B00484603F003FC1E90B4
:10144000002800D126E20121484603F001F9079067
:10145000002800D12FE21F9B002B00DA1EE20E9A1B
:10146000149C9D180999209A5B1A36219B188A1A98
:101470007B49013B8B4200DBCEE1C91A521A1F297E
:1014800000DD44E201238B40109300231193AB183D
:101490009A46099BA4189C462B006444554500DDE0
:1014A0005346A34200DD2300002B04DD5246D21A2E
:1014B0009246E41AED1A0E9B002B00DDC7E153465D
:1014C000002B00DDDDE10B9B002B00DDEAE1002CB1
:1014D00000DD12E2002D08DD2A000799484603F0DE
:1014E00003FA0790002800D1E5E1089A1E994846C2
:1014F00003F084FA8046002800D1DCE1C368079934
:101500000F930023C36003F05FFA002801DA00F0B4
:10151000F5FC059B0C9301D100F074FC0799404643
:1015200003F0FCFB80230022DB0504000D0005F026
:101530001FFB002800D174E10F9B002B00D1EEE1CE
:10154000002300241093474B464D11930C9B464AB1
:1015500013409A46454B9A4500D113E2099B002B54
:1015600029D0D423DB049A4525D8414A414B109811
:10157000119905F0FDFA002818D01098119905F07E
:1015800097FB002800D1D9E307F082FD109011915C
:101590000F9B002B00D0CCE3802212069446109BB8
:1015A0001893119B63441993189C199DD623524696
:1015B000DB04EB189D1A3000390003F0C3FA020077
:1015C0000B002000290006F0E1FE3B00320005F090
:1015D0006DFF03000C0004930594099B002B04D1BC
:1015E000214B23409A4500D1F8E21E99484602F06B
:1015F00015FF0899484602F011FF0799484602F086
:101600000DFF4146484602F009FFFAE61D9A089B85
:101610009446002263441D931B780C9607921A008F
:10162000303A092A00D9EBE5013008921D99002AC9
:1016300000D031E34B1C1D934B78F0E700260027C8
:101640005346002B01D01D9A1A600A9B002B00D133
:10165000EEE5802109067B181F00E9E54814010822
:1016600002FCFFFF0000F03F0000F07F0000E07F81
:101670000000C0FFFFFFDF41002300200C9607930E
:101680000B931D9B9B4601331D935B465B782B2B75
:1016900000D1C8E22D2B00D167E100220E921A0082
:1016A000303A092A00D968E1302B06D11D9B5A1C1B
:1016B0001D9213780132302BFAD0002208921A00C2
:1016C000313A082A00D8B3E1002E01D000F0CEFC58
:1016D000099A0243B2D10B9A002A00D0A1E54E2B01
:1016E00005D017DD692B18D06E2B00D099E5C249C3
:1016F0001DA802F0E5FC002800D192E51D9B1B7897
:10170000282B01D100F0E6FBBC4803F0B1FE060037
:101710000F0095E7492B00D083E5B9491DA802F0D9
:10172000CFFC002800D17CE51D9BB649013B1DA8DC
:101730001D9302F0C5FC002802D11D9B01331D93AF
:10174000B14B0593049E059F7AE75B461C1B0B9BE0
:101750009C466444002C00DD23E600D133E60F23D1
:10176000644223400AD004980599A84ADB00D318A4
:101770001A685B6806F004FA04900591241100D100
:1017800021E61F2C42DC10232340099301D06A2359
:10179000099328220498059990462A009C4B984466
:1017A0004546002390460122224204D02A686B68F5
:1017B00006F0ECFD012364100835002CF3D14546FA
:1017C000002B01D004900591099B002B15D0049BA0
:1017D000059C6B236100490D22005B1A002B0CDD78
:1017E0001F2B01DC00F01EFC00210491342B01DCD6
:1017F00000F026FCDC239B04059300220498059945
:10180000002305F0A5F9002800D1DEE522234A4691
:1018100000261360002713E7002311930133109370
:1018200035E67C4B00222000290006F0AFFD0F9B1F
:1018300010901191002B00D092E0802212060B0034
:101840009446634412901393129C139D7EE61A00F3
:101850000799484602F0D8FF079000282BD01E9A1F
:101860000799484602F00AFF0C90002823D01E99E1
:10187000484602F0D3FD0C9B1E935346002B00DC20
:1018800021E652461E99484603F02EF81E90002885
:1018900000D018E6159B04009A4610E0149A0E9D9D
:1018A000D41ADFE5149A0899484602F0ADFF089073
:1018B000002800D00BE6159B9A461E9B1C00222395
:1018C0004A461360504B059300230493049E059FE2
:1018D0002100484602F0A2FD0899484602F09EFD0C
:1018E0000799484602F09AFD5946484602F096FD8F
:1018F0004146484602F092FDA2E622000899484679
:1019000002F0F2FF0890002800D0E3E5D3E7424957
:10191000CB1A01219940012311911093B7E5049B43
:10192000002B5BD10C9B1B035ED100223B4B2000A4
:10193000290005F013F9002800D031E20022354BD0
:101940002000290006F022FD802212060B0094469A
:101950006344109011911A901B931A9C1B9DF5E5FE
:10196000109A119B129213936EE701230E935B461C
:1019700002331D935B469B7891E65A461D920022E6
:101980000892A1E6264A0C9B9446634405930C9466
:101990000D95049C059D200029001696179703F0CD
:1019A000D1F802000B000C980D9906F0EFFC220014
:1019B0002B0005F07BFD144B1A4A049005910B4057
:1019C000934266D9184A974202D1731C00D172E73C
:1019D000154B059301235B42049306E6012B03D1CB
:1019E0000C9B002B00D128E3002310930B4B002409
:1019F0000E4D1193AAE5C046542001081820010895
:101A0000482001084C2001080000F07F481401081C
:101A1000881201080000E03FE2FBFFFF0000F03FFA
:101A20000000B0FCFFFF9F7CFFFFEF7F0000F0BFD6
:101A30001D99303B1C004B1C1D934B7808911A00DC
:101A4000303A092A00D96EE18A1C84461900A300A5
:101A50001B191D925B005B181178303B1C000B00BA
:101A6000303B10000132092BF1D962468446100048
:101A700062460B000899521A082A00DC53E1CD4A4D
:101A800008920E9A002A00D11EE6089A5242089245
:101A90001AE6D4239B04CC1805949EE52633FF3325
:101AA0009C4200DDEEE02411012C00DC66E204988B
:101AB0000599C14B0022984609930C97002347468D
:101AC000A84615000122224204D03A687B6806F03D
:101AD0005DFC0123013564100837012CF2D12C0084
:101AE0000C9F4546002B01D004900591B34A059BFD
:101AF000944663440593099BE1009C46049A059B28
:101B000061440868496806F041FCAD4AAD4C1300D9
:101B1000049005910B40A34200D9D4E1AA4A934214
:101B200000D8C6E1A94B059301235B42049300232F
:101B300009934AE4A649209B8C460493A54A219B1D
:101B40001A401F9B63441B051A430592330704D5B3
:101B50008023059A1B061A430592049E059F6FE594
:101B6000089A0799280003F09FFC0C90002800D0E9
:101B70006EE21D99089B8C4663441A0001211D9357
:101B80001B78891A0020302B05D1501801321D9284
:101B90001378302BF9D01A00313A082A15D83022A0
:101BA000524294469C4463460893431C0793002387
:101BB0001D9D0027290001269846BB00DF19089BC0
:101BC0007F009C460020674434E50022079290463F
:101BD0000132002600270B92FFF714FB109E119D87
:101BE0003000290005F082F805F0BCF802000B0077
:101BF0003000290006F036FE049A0F9B240313439D
:101C0000240B06000F001C43734A0FD1734B04F0E2
:101C1000A5FF002800D1E8E4159B049E059F9A4685
:101C20001E9B1C0054E600230E93A0E66C4B04F0B0
:101C300095FF0028F0D16B4A6B4B3000390004F05F
:101C4000A1FF002800D1D0E4E6E70A9B02960193A9
:101C50001EAB0093654A1FAB1DA9484601F068FF03
:101C600007240600044000D1E8E4062C6CD153465A
:101C70000135002B01D1FFF7D9FA1D60002600279E
:101C8000FFF7D6FA22234A4613604D4B05930023F3
:101C90000493049E059FD3E4079B741C9C468444D4
:101CA00063460793012800D1E4E1130080199446AC
:101CB000441E4246984606E0BB00DF197F00731CB5
:101CC0001E00A34208D0082EF6DD731C102BF7DC93
:101CD0009600B2185200F3E76446089444460600A2
:101CE00090462200082B00DC67E70020102E00DD64
:101CF000A0E443469B00434490465B00984499E42B
:101D00000B9B163300DA20E504980599079B089A87
:101D10009C1A374BE4001B191A685B6805F030FF0A
:101D200006000F008CE4234A0894944200DCA8E6E5
:101D3000A6E6109A119B1892199335E4002310938C
:101D40002C4B1193FFF724FC1E9A002A07D0352153
:101D500020A803F037F81E99484602F05FFB052CD7
:101D600000D9F3E6244BA4001B599F46144B05935E
:101D7000ECE6209B0493219B0593E7E61F4B05931C
:101D800001235B420493E1E61949DB00C9180868A6
:101D90004968049A059B06F0F9FA06000F004FE423
:101DA0000023174C1A931B94002310930E4B11938E
:101DB000D3E5C0461F4E0000201401080000B0FC0F
:101DC0000000F07F0000A07C0000907CFFFFEF7F10
:101DD00033040000FFFFEFFF9535A094FFFFCF3FD6
:101DE000FFFFDF3F35E5AF350000E03F8812010817
:101DF000481401080000F03F70120108FFFFFF7F48
:101E00000000E0BF159B0F9A9A460C9B1B031B0B0F
:101E1000002A00D1A7E0994A934200D1B3E0119B78
:101E2000002B00D1A4E00C9A134210D0049805991D
:101E30000F9B099A002B00D1CBE0FFF7A7F9020016
:101E40000B003000390005F031FB06000F001E9B2F
:101E50001C00099B002B00D13AE5894B30001793F9
:101E600000231693169A179B390006F08FFA030089
:101E700006000F000B4300D02AE54A4622331360C8
:101E800026E55B460F247F4DE41AE1006918049AA9
:101E9000059B0868496806F079FA0B9B1C1BE40057
:101EA0002C192268636806F071FA06000F00FFF72C
:101EB000C7FBD42292040B0094466344059300238D
:101EC0000993FFF782FA222349460B60002305920B
:101ED000049342E66C4920AA14311DA802F006F9C9
:101EE000052801D0FFF710FC219B684A1A43209B6C
:101EF00005920493049E059FFFF7A2FB159B04998E
:101F0000059A9A460F9B0B43A1D10C9213039ED1C5
:101F10005E4B1340D622D204934298D943465B6964
:101F2000002B03D143461B69012B90DD4146012262
:101F3000484602F0D9FC0799804602F045FD00288A
:101F400000DC84E7099B002B5CD00C9A4F4B1340BC
:101F5000D622D204934255DCDC229204934249DD1E
:101F60001E9B1C0079E7049A134300D057E7E9E76A
:101F7000109B049A134200D169E757E700231C0025
:101F8000434B0993B2E5099B049A002B52D00C995C
:101F90003E4B0B40D421C9048B424BD86B211B0D07
:101FA000C91A01235B428B409A4200D037E7394B74
:101FB0000C99994257D0354B0C9A1A401300802245
:101FC000520394466344059300230493049E059FA3
:101FD0003DE7FFF7DBF802000B003000390006F0A8
:101FE00041FC0022002306000F0004F0B1FD002890
:101FF00000D12CE722234A4613601E9B00261C00BA
:10200000002765E4214B0C9A1A401300224A94469B
:102010001A4A63441A4301235B4205920493049EC7
:10202000059F14E7012252429A40049B13400493F7
:10203000FFF7E3FB01235B42B6E7159B9A46D9E71E
:102040000121203B494299400A400592FFF7D5FB08
:10205000002223000C9290461700100007921600F1
:102060000B92FFF7CFF8531CA5D126E4B3460C9E84
:10207000FFF74FF93300260034E6C046FFFF0F009C
:102080000000503948140108881201080000F07F50
:1020900020140108FFFFEF7F0000F0FF10B5024B96
:1020A000FFF78CF810BDC0466800002010B5040092
:1020B0001300034A10680A002100FFF77FF810BDE3
:1020C0000000002010B50400034B0A00186821002E
:1020D000024BFFF773F810BD0000002068000020DD
:1020E000F0B5C646264F130000B50A000100386857
:1020F000FFF764F802000B0005000C0006F044FF37
:1021000000282DD12100280007F030F8460076087D
:1021100080461C49301C05F077F900281CD119496C
:10212000301C04F05FFD002816D101226400640811
:102130005242154B2800210006F026FF002808D146
:102140000122114B52422800210004F011FD002809
:1021500002D022223B681A60404604BC9046F0BD83
:102160000A48002C07DA03F09BF980231B069C46E3
:102170008444E046F0E703F093F98046ECE7C0467C
:1021800000000020FFFF7F7FFFFFEF7F1820010886
:10219000F0B5C646264F0A0000B5264B0100386848
:1021A000FFF70CF802000B0005000C0006F0ECFE37
:1021B00000282DD12100280006F0D8FF460076081F
:1021C00080461D49301C05F01FF900281CD11A4912
:1021D000301C04F007FD002816D1012264006408B9
:1021E0005242164B2800210006F0CEFE002808D1EE
:1021F0000122124B52422800210004F0B9FC0028B1
:1022000002D022223B681A60404604BC9046F0BDD2
:102210000B48002C07DA03F043F980231B069C4689
:102220008444E046F0E703F03BF98046ECE7C04623
:102230000000002068000020FFFF7F7FFFFFEF7F8E
:1022400018200108F0B5454657464E46DE46E0B533
:10225000814683B08A4690461D00012B3ED00093F4
:10226000242B3BD80A000820474E13001C78571C2B
:10227000315D3A000842F8D12D2C00D177E02B2CAB
:102280005DD000239B46002D48D0102D5AD03F4BE7
:1022900000995B441800019304F05AFB0B00060000
:1022A0002100002200201C000B00303B092B07D925
:1022B000113B192B03D90B00613B192B1AD80A3398
:1022C0009D4217DD002A26DB864224D321D0009AC6
:1022D00050430122181839780137E5E701F0D0FBA7
:1022E00016230360002003B03CBC90469946A246EA
:1022F000AB46F0BD002A30DB5B46002B00D04042ED
:102300004346002BEFD0002A38D1434652461A608C
:10231000E9E79C42DBDA01225242DCE7302C03D0B1
:102320000A230A250093B2E720223B789343582BD7
:1023300026D110237C78009302371025A7E73C783C
:102340009F1C9EE710230093302CA0D120223B78C5
:102350009343582BEDD0009599E722234A4613600A
:102360004346002B08D07B1E9A460198CDE73C7867
:102370009F1C01239B4686E70198B4E70190F2E792
:1023800008230825009382E7B1100108FFFFFF7FB3
:1023900010B5FFF757FF10BD10B504001300034A36
:1023A00010680A002100FFF74DFF10BD000000205B
:1023B00010B504001300034A10680A002100FFF75B
:1023C00041FF10BD00000020F0B5DE4657464E46E6
:1023D0004546E0B589B0079093461E000A000820E4
:1023E0005F4F069113001C78551C395D2A00084286
:1023F000F8D12D2C00D188E02B2C5CD00023029347
:10240000002E00D16EE0102E00D183E0F317B2460B
:102410009946029B002B5FD1013B0393514B0493E0
:1024200052464B460398049904F0FAFB0592804605
:102430000F0000220020002119E01C00A64221DD2F
:10244000531C12D0B9423ED801D140453BD88045FB
:1024500034D052464B4604F003FCE317009401933A
:10246000009B019C0122C01861412C78013523009A
:10247000303B092BE1D92300413B192B26D8373CAF
:10248000A642DDDC531C35D0029B002B04D0030098
:102490000C0000215842A1415B46002B04D0002AC9
:1024A0005AD15B46069A1A6009B03CBC90469946E0
:1024B000A246AB46F0BD2C789D1C9FE78F42C8D149
:1024C000059BA342C5DA01225242CEE72300613BBD
:1024D000192BD7D8573CB1E70023039380231B0661
:1024E00004939DE7302C29D00A239A4600230A261C
:1024F00099468EE72223079A13605B46002B28D06B
:102500006B1E069303980499CBE72C789D1C01233E
:10251000029375E7302C04D120222B789343582B5B
:1025200004D010239A460023994672E710239A4656
:1025300000236C789946023510266AE720222B7812
:102540009343582BF2D008239A4600230826994635
:102550005FE703980499A7E703900491D0E7C0468A
:10256000B1100108FFFFFF7F10B5FFF72DFF10BD71
:1025700010B504001300034A10680A002100FFF799
:1025800023FF10BD0000002010B504001300034A13
:1025900010680A002100FFF717FF10BD000000209F
:1025A000F0B557464E46DE4645468346E0B5924670
:1025B00089461E000A000820474F83B013001C788C
:1025C000551C395D2A000842F8D12D2C5FD02B2CE8
:1025D0002DD000230193002E46D0102E5CD0012078
:1025E0003100404204F02EF9070001203100404242
:1025F000B04604F0ADF9002200202300303B092B47
:1026000007D9113B192B03D92300613B192B11D892
:102610000A339E420EDD002A23DBB84221D81ED0A9
:1026200042465043012218182C780135E5E72C78F2
:102630009D1CCEE7002A1FDB019B002B00D04042EF
:102640005346002B04D0002A1ED153464A461A6036
:1026500003B03CBC90469946A246AB46F0BD8B42C7
:10266000DEDD01225242DFE7302C29D00A2305218A
:102670001A4F98460A26BEE722235A4601201360C5
:1026800053464042002BE3D06B1E9946DDE72C7881
:102690009D1C012301939EE7302C04D120222B782E
:1026A0009343582B04D010230F210D4F9846A2E7D7
:1026B00010236C780F210235094F984610269AE7AF
:1026C00020222B789343582BF2D008230721054F63
:1026D000984608268FE7C046B110010899999919C4
:1026E000FFFFFF0FFFFFFF1F10B5FFF759FF10BDE2
:1026F00010B504001300034A10680A002100FFF718
:102700004FFF10BD0000002010B504001300034A65
:1027100010680A002100FFF743FF10BD00000020F1
:10272000F0B5DE4657464E464546E0B587B00590C3
:1027300093461E000A000820634F039113001C7883
:10274000551C395D2A000842F8D12D2C00D187E0B4
:102750002B2C5BD000230493002E68D0102E00D1C8
:1027600083E0F317320001204042C117994604F07C
:1027700057FA320080460F004B4601204042C117F5
:1027800004F04EFAB246029200220020002119E025
:102790001C00A64221DD002A40DBB9423ED801D10F
:1027A00040453BD8404534D052464B4604F058FA99
:1027B000E31700940193009B019C0122C018614122
:1027C0002C7801352300303B092BE1D92300413B14
:1027D000192B26D8373CA642DDDC002A34DB049BCB
:1027E000002B04D003000C0000215842A1415B469D
:1027F000002B04D0002A30D15B46039A1A6007B040
:102800003CBC90469946A246AB46F0BD2C789D1C38
:10281000A0E7B942C8D1029B9C42C5DD01225242C9
:10282000CEE72300613B192BD7D8573CB1E7302CBA
:1028300039D005230293254B254F98460A239A4603
:1028400000230A2699469FE72223059A0120404249
:10285000C11713605B46002BD1D06B1E0393CBE7EF
:102860002C789D1C0123049376E7302C04D1202280
:102870002B789343582B09D00F230293103B984693
:1028800011339A460023134F99467DE70F23029395
:10289000103B984611339A4600236C780D4F023551
:1028A0009946102670E720222B789343582BEDD0C1
:1028B00007230293083B984609339A460023064FA4
:1028C0009946082660E7C046B11001089999999980
:1028D00099999919FFFFFF0FFFFFFF1F10B5FFF731
:1028E0001FFF10BD10B504001300034A10680A0052
:1028F0002100FFF715FF10BD0000002010B50400F7
:102900001300034A10680A002100FFF709FF10BDF9
:1029100000000020F0B557464546DE464E46E0B57D
:102920000C69036985B007008846A34200DA99E084
:10293000142114228C46013C84444244A300D6183E
:10294000634403931B6861469A46336801910133DF
:10295000190050460292994603F074FF0500CA45DB
:1029600041D3019900238A46A446504600211C0009
:10297000BA46029A009608CA1E04360C6E43B34645
:10298000A3445C461B0C6B43260C9E190368340C55
:102990001F043F0C7F1859460904090C7F1A3104A3
:1029A000090C1B0C5B1A39145B183E041914360C05
:1029B0001B04334308C0009B9342DCD21E00039BE0
:1029C00064461A6857460092002A0CD1019A043BCB
:1029D000934204D806E0043B013C934202D91968B3
:1029E0000029F8D03C614146380001F0EDFF002895
:1029F00030DB00230135A046AC461C00019902984B
:102A00000B6820C81A04120C12192C04240C121B77
:102A10001B0C2C0C1B1B14141B1912041C14120C61
:102A20001B04134308C18642EAD2019A4446654614
:102A30009446A3006344196800290BD1043B9342D8
:102A400004D806E0043B013C934202D919680029EE
:102A5000F8D03C61280005B03CBC90469946A2469F
:102A6000AB46F0BD0020F6E7F0B557464E4645466A
:102A7000DE461400E0B51D00466A9BB08246279FE3
:102A800002940395002E00D1C2E3316800290AD0D8
:102A90000123726893404A608B6001F0BFFC53468B
:102AA00000225B6A1A602E1E00DA24E20023320044
:102AB0003B60D34B1A409A4200D127E2029B039C11
:102AC00018002100002200230890099104F040F82A
:102AD000002813D00123269A1360289B002B00D1D5
:102AE000A4E3C84B289A1360013B069306981BB0D9
:102AF0003CBC90469946A246AB46F0BD18AB01934C
:102B000019AB089C099D009322002B00504602F04F
:102B100099F8330D834600D00BE2199B189FFC18DF
:102B2000B94BE318202B01DC00F050FC4022D31AF3
:102B30009E40B64B0298E318D840304306F0A8FAFE
:102B40000123B34D661E49190F930022B14B05F0C6
:102B500089FEB14AB14B05F019FCB14AB14B04F002
:102B6000A5FC040030000D0006F062FAAE4AAF4B3F
:102B700005F00CFC02000B002000290004F096FC7C
:102B800004000D0006F01EFA0022814600232000FA
:102B9000290003F0E3FF00280BD0484606F048FA6E
:102BA0002B00220003F0D4FF434258414B461B1A2E
:102BB0009946BE1B731E98464B46162B00D9F4E26D
:102BC00008980999DA009A4B9B181A685B6803F019
:102BD000C5FF002800D1C8E201235B429C460023C8
:102BE0000D93002304934346E144002B00DAE4E212
:102BF0004B46002B00DBBFE24A46049B07929B1A20
:102C0000049353420C930023994653465E6A249BD7
:102C10000124092B00D9BBE2052B02DD0024043B73
:102C20002493249B032B01D100F012FD00DC93E1DF
:102C3000249B042B00D0D9E201230B93259B002B6E
:102C400001DC00F0B3FC1D0012930A9300237360B3
:102C5000172D01DC00F0F6FE012204335B001800A2
:102C6000143011000132A842F8D97160504601F0C9
:102C700093FB0690002801D100F0DDFE5346069A32
:102C80005B6A1A600A9B0E930E2B00D980E1002C20
:102C900000D17DE10798002801DC00F033FD0F2111
:102CA0000200634B0A40D2009B1806111C685D6845
:102CB000F30601D500F0BEFC029A039B109211931B
:102CC00002230293002E12D05A4F012333420AD01E
:102CD000029B20000133029329003A687B6805F0CB
:102CE00055FB04000D0076100837002EEDD110982A
:102CF000119922002B0004F043FF06000F000D9BEA
:102D0000002B09D000224C4B3000390003F026FF85
:102D1000002801D000F0C6FD029806F089F93200C3
:102D20003B0005F033FB0022444B04F0BFFB444A58
:102D30000B00944663440290039103930A9B002B7B
:102D400001D100F0AAFC079B13930A9B1093390052
:102D5000300006F037F9069B05005C1C06F068F9A8
:102D600002000B003000390005F07CFD0F001099C7
:102D70002F4B4A1ED2000B999B18303506001A685B
:102D80005B68EDB2002901D100F018FD00202D494B
:102D900004F0F6FE029A039B05F064FD069B3200E8
:102DA0001D703B001490159103F0ECFE002801D03B
:102DB00000F050FD32003B0000201F4905F052FD9D
:102DC00002000B001498159903F0DCFE002801D0D6
:102DD00000F025FE109B012B01D100F0A7FC069A04
:102DE00021009446634402934B461693434617933F
:102DF0005B46A146149C159DD34610938A4637E046
:102E00000000F07F211D01083204000012040000C0
:102E1000000010FE0000F83F61436F63A787D23FB8
:102E2000B3C8608B288AC63FFB799F501344D33FB9
:102E300048140108201401080000F03F00001C4065
:102E40000000C0FC0000E03F32003B000020DE49F3
:102E500005F008FD22002B0003F080FE002801D0C1
:102E600000F0BEFD029BCA46994501D100F057FC17
:102E70000022D64B2000290005F088FA0022D34B0F
:102E800004000D003000390005F080FA0F00060044
:102E900006F098F8804606F0CBF802000B003000F0
:102EA000390005F0DFFC01239C4643463033DBB29A
:102EB0009846534642461A7022002B0006000F0027
:102EC000E14403F04BFE0028BED04C46109BDA468E
:102ED0009B46139B013307935946504601F09EFAD7
:102EE0000023079A2370269B1A60289B002B00D191
:102EF000FCE51C60FAE501236E00760832003B60B9
:102F0000B34B03961A409A4200D0D7E5B14B269AAC
:102F100036031360029B360B1E4316D1289B002BF1
:102F200001D100F092FDAC4B06930833289A136050
:102F3000DCE520002A03A44C120B1443A74A21000D
:102F40009E180023189F0F93FFE5289B002B00D0AD
:102F50001AE3A34B0693C9E500230B93249B022B92
:102F600000D16BE6002450467460210001F014FA91
:102F70000690A04201D100F05EFD5346069A5B6ABE
:102F800025941A6001230B93023B0A9312930E932C
:102F9000199B002B00DAC5E0079A0E2A00DDC1E07C
:102FA000904BD2009B1818685968259B0490059196
:102FB000002B15DA0A9B002B12DC00D08BE30022D9
:102FC000894B05F0E3F9029A039B03F0E5FD002726
:102FD0000026002800D102E3259B069CDD4304E384
:102FE000029E039F049A059B3000390004F0C8FD3F
:102FF00005F0E8FF050006F01BF8049A059B05F0B4
:10300000C5F902000B003000390005F02BFC2B0045
:10301000069A30331370079B0600013307930A9B0F
:103020000F00541C012B50D00022684B05F0AEF964
:103030000022002306000F0003F08AFD002800D0C4
:103040004AE7069A0E9B94466344013B99465B46C9
:1030500002935346A046CA460A93A146049C059D86
:103060000DE00022594B05F091F9002200230600E3
:103070000F00C84603F06CFD002800D097E3220043
:103080002B003000390004F07BFD05F09BFF8346E8
:1030900005F0CEFF22002B0005F078F902000B00AE
:1030A0003000390005F0DEFB01239C465B464246BA
:1030B000303306000F00E1441370D045D1D1029B9C
:1030C0005D469B460A9B4C469A4632003B003000C8
:1030D000390004F0EBF9049A059B06000F0003F099
:1030E00051FD00280BD1049A059B3000390003F0F4
:1030F0002FFD002800D1EFE6EB0700D4ECE6631EBD
:103100001D781A00069907E0013A994201D100F0B2
:1031100023FC15781C00013B392DF5D00135EDB2AB
:103120001D70D9E60B9A002A00D182E0249A012A68
:1031300000DC90E20A9B5D1E0C9BAB4200DB77E259
:103140000C9B0C95EA1A0025914404990A9BCC1A11
:10315000002B04DB9C460C006144E04404910121F7
:10316000504601F075FA060066E04346002B00DA8F
:10317000D2E200230D9304934B46079300230C9354
:1031800053465E6A249BC8440124092B00D843E5BA
:10319000012200230B92023A24930A9225930023E2
:1031A00073600A9B0021129360E501230D930023B5
:1031B00004934346002B00DB1AE501239B1B049379
:1031C0000023984614E5C0460000F03F000024406C
:1031D0000000F07F0F2700005820010801FCFFFFCE
:1031E00064200108481401080000144001230B93D7
:1031F000249B052B00D0B5E6079A259B9446634493
:10320000129301330A931D1E00DD1FE501251DE504
:10321000102001F04BF853465862002801D100F00D
:103220001EFC466086600660C6603CE4D84B069390
:103230005CE400260C9D049C002C0DDD4346002B15
:103240000ADD2300444500DDD9E1049AE41AD21ACC
:1032500004924246D31A98460C9B002B1AD00B9B23
:10326000002B00D189E1002D10DD31002A005046ED
:1032700001F0CAFA5A4601000600504601F0FEF974
:1032800007005946504601F0C9F8BB460C9B5A1B33
:1032900000D073E10121504601F0DAF94B460700F6
:1032A000002B00DD98E0249B0025012B00DC73E15E
:1032B0004A460123002A00D099E01F2043441840C9
:1032C00000D181E020231B1A042B00DCADE31C237A
:1032D000181A049B24189C46844463468044049333
:1032E000049B002B05DD59461A00504601F0FCFAFC
:1032F00083464346002B05DD39004246504601F027
:10330000F3FA07000D9B002B00D01BE10A9B002B5A
:1033100000DC01E10B9B002B00D080E0079B013318
:1033200007930123069A5C469B1AB94615009846F6
:10333000B3460A9F07E0210000230A22504601F00D
:1033400093F83500040049462000FFF7E3FA3030D7
:103350006E1C28704544AF42EDDC33004F465E469C
:103360000025A3461C00049059460122504601F056
:10337000BBFA3900834601F027FB631E1978002849
:1033800000DCABE11A00069806E0013A984200D151
:10339000B1E111781C00013B3929F6D001311970D7
:1033A0003900504601F03AF8002E00D194E5002D86
:1033B00005D0B54203D02900504601F02FF8310066
:1033C000504601F02BF887E51C2082E72022029866
:1033D000D31A9840FFF7B2FB01004A46504601F06D
:1033E00013FA249B0700012B00DC0AE100253B694E
:1033F00003339B00FB18586801F0E0F820231B1AE8
:103400005BE7002331000A22504601F02DF8129BA1
:103410000600002B00DCF5E242460A930792002CDE
:1034200005DD31002200504601F05EFA0600B1468B
:10343000002D00D0A5E10A9A069B94469846013BD0
:103440009C44634608930123029A5C461A403B0061
:10345000D346474698460A9241462000FFF75AFA5B
:1034600003000B90303331002000049301F0ACFADC
:10347000414605004A46584601F0C0FAC3688246F4
:103480000100002B3CD1200001F09EFA5146029031
:10349000584600F0C3FF029A249B13430A9A134331
:1034A00000D17DE27B1C9A46002D00DA43E1249B8B
:1034B0001D430A9B1D4300D13DE1029B002B00DD13
:1034C000D1E1049B3B70089B9F4200D1DFE12100CA
:1034D00000230A22584600F0C7FF002304000A22F6
:1034E000310058464E4511D000F0BEFF4946060057
:1034F00000230A22584600F0B7FF57468146ABE743
:10350000584600F08BFF01230293CBE700F0ACFF9D
:103510005746060081469FE7249B022B4EDC0B9BFF
:10352000002B00D07BE739005846FFF7F3F9030082
:10353000069A303304931370079B541C013307938E
:10354000002511E73900584601F03EFA002800DB5B
:10355000DCE6079B5946013B98460A220023504669
:1035600000F082FF0B9B8346002B00D049E7129BA3
:10357000002B00DC3FE20A93D3E60C9A59465046F2
:1035800001F042F9834685E6024B06930333CDE40E
:10359000201D0108642001080299039A002900D027
:1035A00086E61300120300D082E634E001230A937A
:1035B0002593F4E5129B0A93434607930A9B002B3D
:1035C00000D009E539000522504600F04DFF070004
:1035D0000100584601F0F8F9002800DCFCE4312332
:1035E000069A079D541C137001353900504600F0AF
:1035F00015FF6B1C0793002E00D0E0E66CE44346F9
:1036000023E6029B002B00D0F0E60299039A1300F8
:10361000120300D0EAE6D94A0025134200D147E65A
:10362000049B01350133049301239C46E0443FE6AB
:103630005D1B8AE5D24B0E401A6A5B6A08980999AD
:1036400004F09EFA0323109011910293FFF73AFBC6
:1036500000230B93D0E50F9A002A00D1FFE0C94A5E
:1036600094466344049A984494469C4463460C9D53
:103670001400049373E5029805F0DAFC32003B0075
:1036800004F084FE0022C04B03F010FFBF4A0B0081
:10369000944663440290039103930022BC4B300094
:1036A000390005F0DFF8029E039F32003B00040062
:1036B0000D0003F067FA002800D05CE180200006CE
:1036C0008446390061440B0032002000290003F0D9
:1036D00045FA00282AD0002700267DE4002805D1DD
:1036E000049AD20700D54DE600E019785C1C013B36
:1036F0003029FAD054E63123069A1370079B013320
:1037000007934DE6079B002B00D0F4E0029E039F39
:1037100002330293FFF7F3FA00230D934DE5169B56
:10372000DA469946179B9846109B9B46089B099C36
:10373000029303942CE443465A46B8461F00079B65
:10374000A34601330793029B54469246002B12DD99
:1037500059460122504601F0C7F83900834601F06E
:1037600033F9002800DC2CE1049B392B00D1FAE06E
:103770000B9B313304934346049A35001A704E462E
:103780000EE67168504600F007FE041E00D160E1AD
:10379000310033690C319A1C92000C30FCF7FEFCAE
:1037A00001222100504601F09FF8814643E6029B2A
:1037B0004C469B460A9B9A46FFF78EFB029803995C
:1037C00004F0E4FD069B109A149015919C4611009C
:1037D00061441D7002912500012A1BD000226D4B0F
:1037E0003000390004F0D2FD0F00060005F0EAFBBE
:1037F000040005F01DFC0B0002003900300005F04C
:1038000031F83034029B2C70013506000F00AB42BA
:10381000E4D11C001498159900225F4B03F046FE7A
:1038200032003B0003F09AF9002800D0D1E0149A4E
:10383000159B0020584905F015F832003B0003F0B5
:10384000A1F9002800D171E700E01C00631E1A787E
:10385000302AFAD0139B01330793FFF73DFB362341
:10386000189A9B1AFEE643465A46B8461F00079B25
:10387000A34601330793049B54469246392B72D0DA
:103880004246049B3500013313704E4688E55B4683
:10389000A34654469A46079B350001334746079393
:1038A0004E4661E50A9B002B00D1E4E6129C002CF9
:1038B00000DC3BE7079B0022013B13933000354BB4
:1038C000390004F063FD06000F000298013005F096
:1038D000AFFB32003B0004F059FD00222A4B03F0FD
:1038E000E5FD2A4A0B00944663440290039110942C
:1038F0000393FFF72CFA079B284A5C420F23089892
:1039000009992340DB00D3181A685B6804F03EFD78
:10391000241106000F00002C00D17CE0022210963A
:10392000119700231700164D0122224205D02A6864
:103930006B6804F02BFD0123013764100835002C5F
:10394000F2D10297109E119F002B01D1FFF7D7F9FA
:1039500006000F00FFF7D3F93125079A1D700132D9
:103960000792FFF7B9FA39234246350013704E46E5
:103970003921631E06E50027002630E60000F07FAF
:10398000201401083304000000001C400000C0FCAB
:1039900000001440000024400000E03F48140108EB
:1039A0004346B8461F004346DA46A3465C1C079BC5
:1039B00001330793049B392BD5D0002D00DDD7E6CA
:1039C000D9E6002800D0D6E6049BDB0700D5CBE67D
:1039D000D1E6139A631E01321D780792FFF791FB1F
:1039E0004C46109BDA469B46139B45460133079392
:1039F000631EFFF786FB249B022B00DDDAE54346BE
:103A0000079390E5249B022B00DDD3E54346079303
:103A1000129B0A9303E502230293FFF770F9139BAD
:103A200001330793069BFFF76CFB042B00D157E48F
:103A30003C23181A4DE4D5210C4B002249000C48B8
:103A400001F092FD0021FFF711F90A4B0693FFF7F1
:103A50004DF8064B00220849054801F085FD074B4B
:103A60000022EA21024801F07FFDC046B42001088F
:103A70008020010858200108EA020000682001089F
:103A8000014B18687047C04600000020F0B5D646CC
:103A90004F46464605694B11C0B59A469D422DDDFD
:103AA00006001F241436AF009B000C40F719F318D2
:103AB000A446002C2BD020222100121B10CB9046B4
:103AC000CC409F4216D9B14641461A688A402243EB
:103AD0004C4604C46246A14610CBD4409F42F3D862
:103AE0005346ED1AAD00043D75192C60002C19D019
:103AF000043517E044613500002CF9D1002303613F
:103B0000002343611CBC90469946A246F0BD32009A
:103B10009F42F3D910CB10C29F42FBD85346ED1AF7
:103B2000AD007519AB1B9B100361B542EAD1E7E705
:103B3000F0B5DE464E4645465746E0B58BB0099394
:103B4000C44B07901B688946180093460193FDF704
:103B5000ADFA019A030094466344013B1B7804903C
:103B600000934B461D68AA78302A00D001E202215A
:103B70004942EB1C491BCF181D0001335A1E127815
:103B8000302AF8D0B44B98469B5C002B00D109E159
:103B900042462B780024D35C002292462E00002B54
:103BA00005D0424601363378D35C002BF9D1049A14
:103BB0000199300001F078FC0290002800D098E0D4
:103BC000002C00D1C2E1A41BA30002933378502B38
:103BD00000D19AE03400702B00D196E04B461E6075
:103BE0005346002B00D0C6E0631B013B0021072B8E
:103BF00003DD01315B10072BFBDC079800F0CCFBE9
:103C00000390002800D14AE2039B14330893A54295
:103C100000D3C1E19A4600239946049A01339B1AC6
:103C200056460027AA4606934D460DE0202F00D1A8
:103C3000AFE03A00043741462378CB5C0F210B40BC
:103C400093401D43544517D9331D013C9946009AB2
:103C500023789342EAD1069B9C46A444634605938D
:103C60005345E3D3049A0199604601F01DFC0028F6
:103C7000DCD1059C5445E7D8B2464E46A94653468A
:103C80004A461A60089B4846F61A039BB6101E6106
:103C900000F094FC5B461C687601361AA64200DDF3
:103CA000B6E00025A64200DA42E15B46029A9B6834
:103CB000934200DA65E15B46029A5B68934200DC5E
:103CC0008DE09E1AB44200DDC8E05A46D268022A4E
:103CD00000D195E1032A00D18DE1012A00D171E1E3
:103CE0000399079800F09AFB0023149A5027136059
:103CF00047E0002233780292002C00D167E7A41B32
:103D0000A2000292502B00D064E773782B2B00D1D5
:103D10000CE12D2B00D177E00021701C4246D35CD2
:103D200034005A1E182A00D958E74446421C4078ED
:103D3000103B205C441E182C0DD804009800C018BD
:103D4000400000194446030001321078103B245C07
:103D5000601E1828F2D9002900D05B420299340075
:103D60008C469C446346160002934B461E605346A5
:103D7000002B00D138E77B1E9F4105237F429F43E4
:103D8000063738000BB03CBC90469946A246AB467D
:103D9000F0BD33000833356000224E4604279946B3
:103DA000002548E7049C01992200280001F07CFBD3
:103DB000002870D143462E1932789B5C002B6CD0C2
:103DC0003500302A05D101352B78302BFBD0424607
:103DD000D35C5942594134008A460127DEE6012767
:103DE000002D0AD05B46DB68022B5DD0032B5FD031
:103DF000012B00D190E010231F43149B039A1A60FB
:103E0000099B029A1A60BCE70121B01CB37885E7D0
:103E1000039F361B3100380000F0F4FF051E0FD061
:103E20001F210123701E01408B404211089992000E
:103E30008A5801251A4203D0012800DDB9E0022585
:103E400031000398FFF722FE029B9C46B444634670
:103E500002932AE7D8130108D8120108771E002D13
:103E600000D097E0002F00D09DE01F237A111F4063
:103E70001E3BBB40089992008A581A4201D0022387
:103E80001D4331000398FFF701FE5B465B68A41BEE
:103E900002930227A4E72E002A78502A6CD0702AB9
:103EA0006AD04B461E6066E70123159A9B1A15934C
:103EB000159B002B9FD0039B08981D690021AB0028
:103EC0009946C618AC46030003E002C39E4200D8E0
:103ED0009BE01A68551CF8D001321A60022F00D1FD
:103EE000AAE01F2321271C4087D0484404380068DB
:103EF00000F064FB20231C1BA04200DB7DE70121B6
:103F00000398FFF7C3FD5B46029A9B680132029259
:103F1000934236DB212770E7AA0700D46BE7089AA3
:103F20001268154300922B42C5D164E700216CE76B
:103F3000A61B32000399079800F0D6FC0300029AF2
:103F40001433921B039002920893AEE64246049B00
:103F5000F1180B780E00D25C002A00D137E64246F9
:103F600001363378D25C002AF9D1891B8A0002928B
:103F70002DE60235002705E60023029301339A4619
:103F8000C3E60399079800F049FA0023149AA3277F
:103F90001360F6E6012568E7089B039E9A46002316
:103FA000183699466BE63900039800F02BFF0500A0
:103FB0005BE7B11E380000F025FF0235002800D075
:103FC0003EE73CE7B44200D08AE6012C08D0611EEF
:103FD000039800F017FF002800D181E65B465B687C
:103FE000099A089913600123039A622713610B60F1
:103FF000149B1A60C5E6159A002A00D170E6EFE717
:10400000159A002A00D06BE6EAE76546039B9B6899
:104010000093009A6346954221DA03995A1C8C4614
:104020000A61012104339B0063445960022F03D0CD
:10403000954200DA63E754E75B461B682227013BA1
:10404000A34200D0D9E61F2362111C401E3BA340AF
:10405000920017581F407B425F412137CDE6039BFA
:1040600007985B68591C009300F096F98046002879
:104070001BD0039E0C30330032690C3300920232A5
:1040800019009200FCF78AF80798310000F0C6F991
:1040900040464346424614301B690392BDE7064B37
:1040A0000022DE21054801F05FFA034B0022842143
:1040B000024801F059FAC046B4200108C82001089E
:1040C00030B5026808E013781D00413D192D00D875
:1040D00020330131A34206D10C780132002CF2D1F9
:1040E0000260012030BD0020FCE7C046F0B5454627
:1040F000DE4657464E4690460A681F21E0B55311EA
:1041000085B09B001140009043440191002900D0EC
:1041100089E01A001E1F131F9A460023524613609F
:104120000022009B5B481D68B4466C783300370062
:104130000021934681466E1C002C1BD04846005D32
:1041400000285CD1202C00D996E05A450DDDBB42F9
:1041500002D2072900DC77E00821434505D91F1F5B
:10416000002393463B6000213B0035006C786E1CB9
:10417000002CE3D16646BC46002A00D180E06345AE
:104180001AD2072918DC08222027511A89007F1A21
:104190003C001A681D000F00100061469C46230079
:1041A0006C6822009A4002432000F8402A60686050
:1041B0000435A942F4D86346434537D941460A003D
:1041C00002CB02C211009E42F9D2002308C29642DD
:1041D000FCD253461B68002B09D14346B04502D19F
:1041E00050E0B3424ED0043E3268002AF9D0052098
:1041F00005B03CBC90469946A246AB46F0BD0131A5
:104200000132082907DC1C6824010F2528402043BF
:1042100018603500AAE74345A7D90021043B19607F
:1042200000240131F1E71A1D1E0074E75346019A7C
:104230001B68002ACFD02021891A01225242CA408D
:10424000134052461360C6E708201D001C00411AA7
:1042500089001830401A029003921868029A6B681D
:104260009340034368682B60C84004352860AF4220
:10427000F5D82300039A6FE76646BC46292C05D083
:104280000420B5E7012305203360B1E7009802352B
:10429000056071E7D8120108F03070470048704798
:1042A00058010020004870475801002010B5034B0A
:1042B0000100186800F036FE10BDC0460000002066
:1042C00010B5034B0100186800F0D6FD10BDC046C4
:1042D0000000002030B583B0069C034D0094E42418
:1042E0002C59A04703B030BD6800002082B00029DF
:1042F0000AD0002A0BD0002B0BD013780B6010785B
:10430000431E984102B0704701A9002AF3D1002052
:10431000F8E702204042F5E770B5CDB2830734D00C
:10432000531E002A1BD00278AA4219D0032404E0AD
:10433000013B14D30278AA4212D001302042F7D1B7
:10434000032B0ED8002B0AD00278AA4208D0C3183B
:1043500002E00278AA4203D001308342F9D1002062
:1043600070BDFF220C06240C114021430C04084EA2
:104370000C43026807496240511891433142E3D12E
:10438000043B0430032BF4D8DCE71300D8E7C04625
:1043900080808080FFFEFEFE70B5446A05000E003E
:1043A000002C0DD0E368002B15D0B2009B181868C4
:1043B00000281CD002681A6000230361C36070BD2E
:1043C0001020FFF773FF041E68621DD000234360B6
:1043D00083600360C36021220421280000F03EFDB9
:1043E0006B6AE060DB68002BDFD10020E7E7012487
:1043F000B440621D92000121280000F02FFD00282A
:10440000F3D046608460D7E7024B00226621024861
:1044100001F0AAF8682001081421010870B5466A65
:1044200005000C00002E0AD0002C07D06B6A6268D1
:10443000DB6892009B181A6822601C6070BD102017
:10444000FFF734FF6862002804D04660866006608B
:10445000C660E9E7024B00228A21024801F084F895
:104460006820010814210108F8B5CE464746814668
:10447000080080B50D000C691F000021143003688E
:1044800001311E04360C56431B0C5343F619370CEE
:10449000DB1936041F0C360C1B049B1908C08C4218
:1044A000EDDC002F08D0AB68A3420ADD231D9B0082
:1044B000EB1801345F602C6128000CBC90469946D3
:1044C000F8BD6B684846591CFFF766FF8046002818
:1044D00013D029002B690C319A1C92000C30FBF789
:1044E0005DFE290045464846FFF798FF231D9B00C7
:1044F000EB1801345F602C61DEE7034B0022B5212D
:10450000024801F031F8C046B42001081421010826
:10451000F8B54746CE460600180080B50C000830B6
:1045200009211F00904602F017FA092F3ADD0123F6
:1045300000215B0001319842FBDC3000FFF72CFFCB
:10454000002831D0089B4361012303614346092BB6
:1045500015DC092398460A3447450CDD4346E71924
:10456000FF1A23780100303B0A2230000134FFF7A4
:104570007BFFBC42F5D10CBC90469946F8BD09239F
:104580009946A1444D4644442B780100303B0A2211
:1045900030000135FFF768FFA542F5D14446083CDD
:1045A0004C44D9E70021C8E7024B0022CE21024843
:1045B00000F0DAFFB4200108142101080300020C06
:1045C0000020002A01D11B0410301A0E01D108303E
:1045D0001B021A0F01D104301B019A0F01D10230C6
:1045E0009B00002B02DB01305B0000D570472020D0
:1045F000FCE7C04603685A0708D0DA0720D49A07B8
:1046000022D501225B0803601000704719040022C4
:10461000002901D11B0C1032FF21194201D10832AF
:104620001B0A190701D104321B09990701D1023273
:104630009B08D90702D401325B0803D00360E3E78B
:104640000022E1E72022DFE79B0803600222DBE78C
:1046500010B50C000121FFF79FFE002803D00123B5
:104660004461036110BDA021024B002249000248B1
:1046700000F07AFFB420010814210108F0B5574674
:104680004E464546DE46E0B50C69166985B00D001C
:104690001700B44204DB33000F00260015001C0095
:1046A00033199846BB687968434500DA0131FFF752
:1046B00073FE0290002800D19AE014229446029BD7
:1046C000002263449B4643469B005B4419000393CE
:1046D0005B468B4503D2039904C39942FCD83B0047
:1046E00014339C4601931423A40099462300B1007F
:1046F000A94461444B4400938C46994509D35AE040
:10470000240C2ED104239A46009BD144D3444B451C
:1047100051D94B461C6825042D0CF1D05E46002172
:10472000019F300008CE04CF9A46544613041B0C58
:104730006B432404240C1B195C18130C52466B4366
:10474000120C9B18220C9B182204190C120C1B042F
:1047500013430360BC45E4D84B4631601C68240C0D
:10476000D0D05B4600271B68664659461800BC46F9
:10477000019D0A002F88000C67433F1867441B0403
:1047800038041B0C034308C208CD48681B0C634364
:104790000104090C5B183F0CDB19190C8C46110045
:1047A000AE42E6D8136004239A46009BD144B44637
:1047B000D3444B45ADD84346002B0EDD039B043B51
:1047C0001A68002A09D1424603E0043B196800290F
:1047D00002D1013A002AF8D19046029B42461800C5
:1047E0001A6105B03CBC90469946A246AB46F0BD66
:1047F0005E21034B0022FF31024800F0B5FEC046A7
:10480000B420010814210108F0B503234F464646A1
:10481000D6461400C0B5134007000E00002B35D15A
:10482000A41023D07B6A9846002B38D09D68002DB9
:1048300041D00123984600239A464346234208D19B
:10484000641013D02868002816D005004346234280
:10485000F6D031002A003800FFF710FF8146310002
:104860003800FFF7DBFD4E466410EBD130001CBC76
:1048700090469946A246F0BD2A0029003800FFF76D
:10488000FDFE5346286003600500DFE7124A013B46
:104890009B009A580023FFF7E7FD0600C0E71020B1
:1048A000FFF704FD8046786200280ED000234360A5
:1048B00083600360C36009493800FFF7C9FE4346BF
:1048C0009860002305000360B3E7D721044B002262
:1048D0004900044800F048FEE81301087102000096
:1048E0006820010814210108F0B557464546DE4608
:1048F0004E46E0B50D0053119A462B6983B05344E0
:104900009B465C1CAB688046170049689C4203DDEF
:1049100001315B009C42FBDC4046FFF73DFD01900E
:10492000002846D00198524603001433002A0BDDBC
:10493000514684461A00002089008A461431614499
:1049400001C28A42FCD1534429001F202A69143134
:10495000920038408A188446002821D020206646DC
:10496000801B8146002766460868B040384301C373
:10497000484680C9C7408A42F5D81F60002F00D042
:10498000A3465B46019C404623612900FFF746FD94
:10499000200003B03CBC90469946A246AB46F0BD11
:1049A00001C901C38A42ECD901C901C38A42F7D8BF
:1049B000E7E7DA21024B0022FF31024800F0D4FD84
:1049C000B4200108142101080A69036930B5050003
:1049D000981A12D1920014351431AB18891801E0DD
:1049E0009D420AD2043B04391C680A689442F7D0FD
:1049F0009442804101239843013030BDF8B54E46C2
:104A00004546DE465746E0B50D0011692B698446E0
:104A100014005E1A00D070E02800890014301432AF
:104A20004318521801E098426BD2043B043A1F68C5
:104A300011688F42F7D05BD369686046FFF7ACFC22
:104A4000814600286AD02B69C6609C46980023697D
:104A5000290027009B00834698464D4600241431C8
:104A600014378B44B84414352E0008C901CF1A04FA
:104A7000120C14190204120CA21A1C0C030CE31AD7
:104A800014141B1912041C14120C1B0404351343B8
:104A9000AA463360B845E7D88B451DD90E0008CE2D
:104AA0001A04120C121914141B0C1B1912041C14D6
:104AB000120C1B04134308C5B345F0D858460138FF
:104AC000461AB608B6005644002B07D101235B42B4
:104AD0009846043E3368C444002BF7D04B466246E8
:104AE0001A6148463CBC90469946A246AB46F8BD82
:104AF0002B00012625001C009EE7002EF8DB002677
:104B00009AE700216046FFF747FC814600280CD059
:104B100001234A46136100235361E2E79021064BCB
:104B200000228900054800F01FFD034B00220449C4
:104B3000024800F019FDC046B42001081421010804
:104B4000320200000F4B19400F4B9C466144002974
:104B500004DD00220B0010001900704749420915BE
:104B600000220023132904DC8020000308410300F5
:104B7000F1E7143901201E2902DC80200006C8401C
:104B80000200E8E70000F07F0000C0FCF8B5060076
:104B90004746CE4604691436A4003419231F1D6805
:104BA00080B528000F009846FFF708FD20210A1A5B
:104BB0003A600A2829DD0B3846451FD208235B429C
:104BC0009C46A44463461F6800281AD00B1A9946D5
:104BD0003B004A468540D34019491D4329430B00F9
:104BE0008740664503D20C3C2068D04007433A001A
:104BF000100019000CBC90469946F8BD002700280B
:104C000017D10F4929430B00F1E72F0015390B1A73
:104C1000DF400B49994639430B000027464503D234
:104C20004946083C2768CF40153085403D432A005F
:104C3000DEE785400249002729430B00D7E7C0463D
:104C40000000F03F70B5012182B015001C00FFF795
:104C5000A3FB061E4FD0230364001B0B640D02D080
:104C60008022520313430193002D17D101A8FFF7AF
:104C7000C1FC019B20307361012301253361002CAD
:104C800024D0204B9C46069B644424181C6035238A
:104C9000181A079B1860300002B070BD6846009576
:104CA000FFF7A8FC002822D0019D20232A001B1A10
:104CB0009A401300C540009A019513437361B56192
:104CC0006B1E9D4101353561002CDAD10E4B9C469F
:104CD000069B604418600D4BEB189B00F318586955
:104CE000FFF76CFC6D01079B2D1A1D60D3E7009B3D
:104CF000019D7361E3E7064B00220649064800F078
:104D000033FCC046CDFBFFFFCEFBFFFFFFFFFF3FA5
:104D1000B42001080A03000014210108F0B5CE46B2
:104D2000474680B585B0884602A98146FFF72EFF29
:104D300006000F00404603A9FFF728FF00900191ED
:104D40004946096902008C46414609698846614620
:104D50004046091A49018C4603980299091A884667
:104D6000C444614600290DDD0B05DD192F00009AB2
:104D7000019B3000390002F003FF05B00CBC9046E7
:104D80009946F0BD080501990B1A00920193EEE7D0
:104D900010B50400172809DD002007490022074B41
:104DA000013C03F0F3FA002CF8D110BD044BC40011
:104DB0001C1920686168F8E70000F03F00002440FB
:104DC00048140108130070B54C1E116964110134B8
:104DD00014338900A400591804198B420AD2050023
:104DE00040CB40C59942FBD8891A15398908013151
:104DF00089004018844203D9002308C08442FCD8AB
:104E000070BDC0460200006910B514324C11A042BA
:104E10000FDA8300D3189A421DD2043B1868002889
:104E200004D016E0043B1968002912D19A42F9D344
:104E300010BDA300D318A042EDDD1F200140EAD031
:104E40001C682000C8408840010001208C42EFD13E
:104E5000E1E70120ECE70020EAE7C0464A4370B5ED
:104E60001100140000F05EF8051E03D0220000219E
:104E7000FBF746FA280070BD70B50500002915D073
:104E80000C1F2368002B27DB280000F0B1FB244B0C
:104E90001A68002A05D0A2420CD921686018824203
:104EA00024D0626028001C6000F0A4FB70BDA34207
:104EB00003D81A005368002BF9D111685018A0428A
:104EC0001BD027D821686018834207D063605460E4
:104ED000280000F08FFBE9E7E418D5E718685B6865
:104EE00084466144216063605460F1E71068526851
:104EF0008446614421606260D4E720680918501834
:104F000011608342E4D118685B6884466144116093
:104F10005360DDE70C2328002B6000F06BFBC5E736
:104F2000F8030020F8B50323CD1C9D430835060087
:104F30000C2D2AD20C25A94229D8300000F058FBAC
:104F40002A4F3A68002A0AD013685B1B04D441E058
:104F500023685B1B1FD522005468002CF8D17B68A6
:104F6000002B3DD02900300000F088FA431C2AD0E5
:104F70000323C41C9C43A04205D0211A300000F03A
:104F80007DFA431C1FD0256010E0002DD3DA0C23DE
:104F900000203360F8BD0B2B05D86368A2421DD0FA
:104FA000536003E014002360E4182560300000F033
:104FB00021FB200007220B30231D9043C21AE9D0A9
:104FC0001B1AA350E6E70C233000336000F012FBFD
:104FD0000020DFE70B2BE5D8140053683B60E5E7C2
:104FE0000021300000F04AFA7860BBE7F8030020A7
:104FF000F0B546464F46D646C0B58E6881460C0091
:1050000090461D0008689E4239D890228B89D200B4
:10501000134211D135002A004146FBF713F9A3686A
:1050200000209E1B2368A6609C46654425601CBC2E
:1050300090469946A246F0BD0969421A92466269B5
:10504000681C5700BF18FA0FD7197F1050443A0058
:10505000B84201D9070002005B0512D5110048468D
:10506000FFF760FF061E1FD052462169FBF796F836
:10507000A389124A134080221343A38106E01E0035
:10508000C9E7484600F0B8FA061E09D0300053467A
:1050900050446761FF1A266120602E00A760BAE7BE
:1050A00021694846FFF7E8FE0C234A461360402278
:1050B0000120A38940421343A381B8E77FFBFFFF90
:1050C000F0B54E464546DE465746E0B5936883B098
:1050D00001900D009146002B6BD0176808688C6812
:1050E00044E09022AB89D20013422ED02969421AA3
:1050F0009346686942001218D00F8218701C521033
:1051000058449046904201D9804602008020C00059
:10511000034237D011000198FFF704FF041E53D05B
:105120005A462969FBF73AF8AB89294A134080228D
:105130001343AB81434620005A462C61B0463400ED
:1051400058446B619B1A2860AB6042465146FBF79E
:1051500079F8AB681C1B2B68AC6043442B601800CB
:105160004B469B689E1B4B469E6022D03B687E68E8
:105170009A460837A046002EF8D0A642B1D2340095
:10518000B046E2E7019800F037FA041ED2D1019C44
:1051900029692000FFF770FE0C2323604022AB89B1
:1051A00001201343AB814A46002340429360536081
:1051B00003E000234A460020536003B03CBC904605
:1051C0009946A246AB46F0BD0C23019A1360E5E771
:1051D0007FFBFFFFF0B54E46DE4657464546E0B53D
:1051E000A1B0049003911C008B8991461B0604D545
:1051F0000B690593002B00D119E1002308AD6B6109
:1052000020336B761033AB762F3B98464B461B789A
:105210000794924F002B00D186E0252B00D104E1AA
:105220004E4603E0252B00D18BE026007378741CDA
:10523000002BF7D14B46E31A9A4675D053464A469F
:1052400003990498FFF7D4FE431C6DD06B69534457
:105250006B617378002B67D00122002352426A6091
:10526000443201342B60EB60AB60AB54AB6506E0BD
:105270004346C01B834034002A6813432B602178C7
:1052800005223800FFF748F8661C0028F0D12B688B
:10529000B246DA0602D543222021A9541A0702D5C4
:1052A00043222B21A95421782A2950D1079A111D74
:1052B00012680791002A00DA9AE0EA606178A61C79
:1052C0002E295CD0664B032218009946FFF724F87C
:1052D000002800D171E04B46C01A402383402A6861
:1052E000317813432B600622731C5E489946297659
:1052F000FFF712F800286AD05B4B002B00D170E05A
:1053000007AB0093039A594B29000498FBF71EF949
:1053100083465B46013307D06B695B446B614B4648
:105320001B78002B00D078E7039B9B895B0600D598
:105330008CE0686921B03CBC90469946A246AB46D9
:10534000F0BD4B46E31A9A4600D185E776E70A009E
:10535000303AA246092AB3D8EB68180001E03400BD
:10536000013683001B1831785B0098180A00303A28
:10537000092AF4D9B246E860A61C2E29A2D15346C8
:1053800059782A293AD1079B1A1D079252469178DB
:10539000D61C022294461B68E2446B60002B00DBA3
:1053A00090E701235B426B602D4B03221800994666
:1053B000FEF7B2FF002800D08DE7B146564631789F
:1053C000062228482976FEF7A7FF002894D107ABCC
:1053D0000093039A254B29000498FBF759FC834658
:1053E00097E70722079B073393430833079393E715
:1053F0005242EA60022213432B605FE70A00002357
:10540000303A6B601800092A01D91CE01E008300A5
:105410001B1871785B0098180A00303A731C092A2F
:10542000F4D99A46023668604CE74C4614E74021AE
:10543000FFF778FD039B18601861002809D040230E
:10544000039A5361D9E6B24601363BE70120404258
:1054500070E70C23049A013813606BE748210108B8
:1054600050210108542101084D050008F14F0008A2
:10547000002001497047C0460000F87F002370B546
:10548000064C05000800236001F0C4F9431C00D05D
:1054900070BD2368002BFBD02B60F9E78021002032
:1054A000004870470000C07F30B5002A39D00300A3
:1054B0000B439B071FD1032A1DD903680C68A34225
:1054C00031D1043A002A2CD01A4C1B4D1C199C4394
:1054D0002C420CD025E003680C68A34223D1043A87
:1054E000002A1ED0134C1C199C432C4219D10430A5
:1054F0000431032AEFD804780D78013AA5420ED181
:10550000002A0ED0002C0CD0012304E09A4208D0CF
:105510000133002C05D0C45CCD5CAC42F6D0601BDE
:1055200000E0002030BD04780D78013AA542E9D0B2
:10553000601BF7E7FFFEFEFE8080808070B5E024F0
:10554000014D2C59A04770BD68000020002909D0EA
:10555000FF2A02D801200A7070478A2303600120C5
:105560004042F9E70020F7E730B51C000A4B050080
:105570001B6885B0D868002A0AD0084B02920193B4
:1055800000912B002200064900F020F800F01AFBE1
:10559000044B1A00F2E7C046000000205C2101081D
:1055A0006C21010818200108130010B50022FFF734
:1055B000DBFFC0460CB400B583B004AB04CB019351
:1055C00000F07AF803B008BC02B018470EB400B57A
:1055D00082B003AB0100054804CB0068019300F0E2
:1055E0006BF802B008BC03B01847C04600000020AA
:1055F0007047C0467047C046F8B507000C0015005C
:1056000000291BD0002A15D000F028FF2600A84250
:1056100001D33000F8BD29003800FFF783FC061ED7
:10562000F7D021002A00FAF7B9FD21003800FFF772
:1056300023FCEEE7FFF720FC0026EAE71100FFF766
:1056400071FC0600E5E7C046936810B5013B936026
:10565000002B04DA9469A34207DB0A2905D01368FA
:10566000581C10600800197010BD00F0AFF9FBE77E
:10567000F8B506000F00002B0DD01400D51802E07D
:105680000134AC4207D021783A003000FFF7DCFF4C
:10569000431CF5D1F8BD0020FCE7C046936810B567
:1056A0001400002B02D10020536010BD00F08EFCCE
:1056B0000023A3606360F8E7F0B54E46DE46574628
:1056C0004546E0B5A1B00490039191461C00002826
:1056D00004D083690593002B00D1BEE0AD4B039A43
:1056E0009A4200D1C0E0AC4B039A9A4200D1CDE07F
:1056F000AA4B039A9A4200D147E1039A93891B0768
:1057000000D4B9E013690593002B00D1B4E0002365
:1057100008AD6B6120336B761033AB762F3B984628
:105720004B461B7807949E4F002B00D189E0252B18
:1057300000D125E14E4603E0252B00D1AAE026004A
:105740007378741C002BF7D14B46E31A9A4678D035
:1057500053464A4603990498FFF78AFF431C70D0CA
:105760006B6953446B617378002B6AD0012200236C
:1057700052426A60443201342B60EB60AB60AB5440
:10578000AB6506E04346C01B834034002A681343E0
:105790002B60217805223800FEF7BEFD661C00282C
:1057A000F0D12B68B246DA0602D543222021A95453
:1057B0001A0702D543222B21A95421782A2900D087
:1057C0006EE0079A111D12680791002A00DABAE00C
:1057D000EA606178A61C2E2900D17AE0714B032281
:1057E00018009946FEF798FD002800D18FE04B463F
:1057F000C01A402383402A68317813432B60062265
:10580000731C694899462976FEF786FD002800D169
:1058100088E0664B002B00D18EE007AB0093039A23
:10582000634B29000498FAF791FE83465B460133E7
:1058300007D06B695B446B614B461B78002B00D033
:1058400075E7039B9B895B061DD4686921B03CBC4E
:1058500090469946A246AB46F0BD00F08FFB4D4BFB
:10586000039A9A4200D03EE7049B5B680393039A35
:1058700093891B0700D545E70399049800F01CF9AC
:10588000002800D143E701204042DFE7049B9B68EA
:10589000039332E74B46E31A9A4600D166E757E78F
:1058A0000A00303AA246092A95D8EB68180001E0B0
:1058B0003400013683001B1831785B0098180A0009
:1058C000303A092AF4D9B246E860A61C2E2900D045
:1058D00084E7534659782A293BD1079B1A1D079222
:1058E00052469178D61C022294461B68E2446B60B3
:1058F000002B00DB72E701235B426B60294B032224
:1059000018009946FEF708FD002800D06FE7B14661
:1059100056463178062224482976FEF7FDFC0028F9
:1059200000D076E707AB0093039A214B2900049837
:10593000FBF7AEF9834679E70722079B07339343CA
:105940000833079375E75242EA60022213432B6043
:105950003FE70A000023303A6B601800092A01D99A
:1059600010E01E0083001B1871785B0098180A0075
:10597000303A731C092AF4D99A46023668602DE73A
:105980004C46F3E6B246013628E7049BDB680393F6
:10599000B3E6C0465015010830150108101501087E
:1059A0004821010850210108542101084D05000833
:1059B0007156000810B504001300034A10680A006D
:1059C0002100FFF779FE10BD00000020F8B50500AA
:1059D0000E001400002802D08369002B29D02D4B23
:1059E0009C422BD02C4B9C4246D02C4B9C424ED000
:1059F000A369A360A3891B0726D52369002B23D0A5
:105A0000FF22F7B2616916402268D31A99422ADD53
:105A10000133A1680139A160511C216017706269CE
:105A20009A422BD0A389DB0701D50A2E26D030005D
:105A3000F8BD00F0A3FA174B9C42D3D16C68A36960
:105A4000A360A3891B07D8D42100280000F034F8F4
:105A5000002819D1FF222369F7B261691640226834
:105A6000D31A9942D4DC2100280000F04DF9002817
:105A70000AD122680123CCE7AC68B9E721002800ED
:105A800000F042F90028D2D001267642CFE7EC6838
:105A9000AEE7C04650150108301501081015010881
:105AA00010B5044B0A001B6801001800FFF78EFFB9
:105AB00010BDC046000000203E4B70B51D680600BA
:105AC0000C00002D02D0AB69002B1BD03A4B9C423E
:105AD0001ED03A4B9C424CD0394B9C4260D00C2398
