:020000040800F2
:1000000000400020815A00087D0800087F08000891
:1000100000000000000000000000000000000000E0
:10002000000000000000000000000000810800083F
:100030000000000000000000830800088508000898
:10004000D15A0008D15A0008D15A0008D15A0008E4
:10005000D15A0008D15A0008D15A0008D15A0008D4
:10006000D15A00088D080008D15A00089D080008E0
:10007000D15A0008D15A0008D15A0008B508000822
:10008000D15A0008D15A0008D15A0008D15A0008A4
:10009000D15A0008D15A0008D15A0008D15A000894
:1000A000D15A0008D15A0008D15A0008D15A000884
:1000B000D15A0008D15A0008D15A0008C5080008D2
:1000C0000448054B10B5834203D0044B002B00D0ED
:1000D000984710BDF4010020F4010020000000004A
:1000E00006480749091A8B10C90FC91810B54910DD
:1000F00003D0044B002B00D0984710BDF401002022
:10010000F40100200000000010B5074C2378002BFC
:1001100009D1FFF7D5FF054B002B02D0044800E0C2
:1001200000BF0123237010BDF40100200000000077
:10013000D45A0008054B10B5002B03D004490548DC
:1001400000E000BFFFF7CCFF10BDC046000000007C
:10015000F8010020D45A000870B50C4D0C4E761BE7
:10016000B61005D0002408CD01349847A642FAD134
:1001700005F0B0FC074D084E761BB61005D00024E4
:1001800008CD01349847A642FAD170BDD05B000873
:10019000D05B0008D05B0008D45B0008F0B5050018
:1001A00083074AD0541E002A44D0CEB20300032253
:1001B00002E00135013C3DD301332E701342F8D1EA
:1001C000032C2FD9FF220A40150215432A04154398
:1001D0000F2C35D92700103F3F093E01B4461E00C1
:1001E0001A0010366644156055609560D56010326F
:1001F000B242F8D10F260C2201373F012640DB190D
:100200003700224217D03E1FB608B400A4461A0099
:100210001C1D644420C2A242FCD103240136B60056
:100220009B193C40002C05D0C9B21C191970013330
:100230009C42FBD1F0BD3400F4E714000300BFE79B
:100240002700E0E7002243088B4274D303098B4266
:100250005FD3030A8B4244D3030B8B4228D3030C96
:100260008B420DD3FF22090212BA030C8B4202D338
:100270001212090265D0030B8B4219D300E0090A60
:10028000C30B8B4201D3CB03C01A5241830B8B4269
:1002900001D38B03C01A5241430B8B4201D34B0352
:1002A000C01A5241030B8B4201D30B03C01A5241B7
:1002B000C30A8B4201D3CB02C01A5241830A8B423C
:1002C00001D38B02C01A5241430A8B4201D34B0225
:1002D000C01A5241030A8B4201D30B02C01A524189
:1002E000CDD2C3098B4201D3CB01C01A524183093D
:1002F0008B4201D38B01C01A524143098B4201D377
:100300004B01C01A524103098B4201D30B01C01AA1
:100310005241C3088B4201D3CB00C01A524183081B
:100320008B4201D38B00C01A524143088B4201D348
:100330004B00C01A5241411A00D2014652411046A8
:100340007047FFE701B5002000F006F802BDC04687
:100350000029F7D076E770477047C046F0B589B0FE
:100360001422002103A8FFF719FF214B59698020AF
:100370008002014359615A6902400192019A5A6907
:100380008021C9020A435A615B690B400293029BB8
:10039000C026B6009027FF0500223100380003F088
:1003A00059FE144D00223821280003F053FEE023AB
:1003B000DB01039388235B0304930024059403A9C2
:1003C000280003F079FD039601260496059406940F
:1003D00003A9380003F070FD3823039304960594B5
:1003E000069403A9280003F067FD09B0F0BDC046DC
:1003F000001002400004004810B50D4C0D4B236066
:100400000D4B63600023A3600122E26023616361FE
:10041000A361E3612362200003F028FA0021200099
:1004200003F0F4FC0021200003F01CFD10BDC046C9
:1004300054040020005800401A09102000B583B071
:100440000D4A5169012319435161526913400193C7
:10045000019B00220021092003F0ECFE092003F09B
:1004600019FF002200210B2003F0E4FE0B2003F013
:1004700011FF03B000BDC0460010024070B584B04B
:100480000C22002101A8FFF789FE274C274B23608F
:1004900000256560A560E56001262661082363618B
:1004A00025766576A576E5767833E3618023DB00F3
:1004B00023622423E654A662200003F06BFF01951B
:1004C00080235B0102930535039501A9200004F008
:1004D000C5F8019601A9200004F0C0F80223019399
:1004E00001A9200004F0BAF80323019301A9200018
:1004F00004F0B4F80423019301A9200004F0AEF83D
:10050000019501A9200004F0A9F80623019301A98F
:10051000200004F0A3F80723019301A9200004F0B0
:100520009DF804B070BDC0460806002000240140BC
:1005300030B587B01022002102A8FFF72FFE082255
:1005400000216846FFF72AFE0F4C104B2360102352
:1005500063600025A5608023DB00E36025616561A1
:10056000A561200004F088FA80235B01029302A9B0
:10057000200004F0B9FA009501956946200004F0C6
:1005800037FB07B030BDC04628050020002C0140D5
:1005900030B587B01022002102A8FFF7FFFD082226
:1005A00000216846FFF7FAFD104C8023DB0523602D
:1005B0000F4B63600025A560E023FF33E3602561F6
:1005C000603BFF3BA361200004F056FA80235B01EF
:1005D000029302A9200004F087FA202300930195DA
:1005E0006946200004F004FB07B030BD7005002010
:1005F0000F27000010B598B0302200210CA8FFF79B
:10060000CDFD1022002107A8FFF7C8FD1C22002104
:100610006846FFF7C3FD30230B932F3B13931093D2
:100620000F33119300240BA802F028FB0723079334
:10063000043B089309940A94012107A802F00AFEDA
:1006400080239B0200930694684602F0A5FE18B032
:1006500010BD000010B502F075FFFFF7CBFFFFF7EC
:100660007DFEFFF7C9FEFFF7E9FEFFF707FFFFF783
:100670005FFFFFF78DFF00F031FA254C01220821C2
:10068000200003F0E7FC01221021200003F0E2FC2F
:10069000FA20400002F078FF1E4C69221E4920001B
:1006A00000F054F8C8214900200000F09BF81B49D5
:1006B000200000F0BDF80121200000F07DF80028A6
:1006C0000DD000220821124803F0C4FC082214496E
:1006D000144803F021FF144804F094F816E00022B7
:1006E00010210B4803F0B6FCF0E762000F4BD15A23
:1006F000084800F09DF82021054803F0B1FC1920BE
:1007000002F042FF0134E4B23B2CEED90024FBE7B7
:1007100000040048B80500205404002070170000B1
:1007200010020020080600207005002000000020B4
:1007300072B6FEE710B5017949000068052303226F
:1007400003F09EFA43425841C0B210BD10B50400F8
:1007500001600271FFF7EEFF024BE380024B238141
:1007600010BDC04628230000B80B000030B585B08E
:10077000150004790A0061000068052402940193C1
:100780000095012303F0D8F843425841C0B205B0A8
:1007900030BD30B585B0150004790A0061000068ED
:1007A0000524029401930095012303F095F9434237
:1007B0005841C0B205B030BD30B583B0050001234B
:1007C0006A4607320421FFF7E4FF040001236A466A
:1007D000073204212800FFF7C9FF2040C0B203B050
:1007E00030BD000000B583B00A0003898B4218D3E6
:1007F0000D4B994200D91A0093009B18DB00991801
:100800004901891A094B9C46614409147F23194008
:100810006B46DA1D117001230321FFF7A7FF03B018
:1008200000BD0020FBE7C046B90F0000E87A0000D9
:1008300000B583B0C3888B421BD3A023DB01994250
:1008400000D919004B005B189B005B189901C91A6D
:10085000094B9C466144491307230B4001AA1370BE
:10086000C9085170032393700021FFF77FFF03B085
:1008700000BD0020FBE7C046FF0F0000FEE7FEE7DB
:100880007047704710B502F06DFE10BD10B50248FC
:1008900003F07BFC10BDC046C405002010B5034822
:1008A00003F073FC024803F070FC10BDE404002068
:1008B000A004002010B5024803F0DFFF10BDC046C1
:1008C0007005002010B5024801F086FF10BDC0463B
:1008D000DC12002082B00A4B996901221143996110
:1008E00099690A400092009ADA69802149050A4311
:1008F000DA61DB690B400193019B02B07047C0468F
:100900000010024070B588B004001422002103A832
:10091000FFF744FC1E4B22689A4201D008B070BD1C
:100920001C4B9A698026B60032439A619A6932401C
:100930000192019A5A69802189020A435A615B69CE
:100940000B400293029BFF230393FC3B049300257F
:100950000595902003A9C00503F0AEFA0E480F4B91
:100960000360456085608023C360066180231B01AE
:10097000436120238361C56103F0A4FB002803D1F8
:10098000054B23635C62C9E7FFF7D2FEF8E7C04678
:100990000024014000100240C4050020080002406D
:1009A00070B588B004001422002103A8FFF7F6FBFD
:1009B0002C4B22689A4201D008B070BD2A4E726951
:1009C0008021C9020A43726173690B400193019B44
:1009D000C0231B01039312230493002505950F3BAD
:1009E0000693023B079303A9204803F065FAF269D6
:1009F0008021C9030A43F261F3690B400293029B11
:100A00001B481C4B0360456085608023C360056103
:100A10004561856180235B01C36103F053FB0028BE
:100A200019D1134BE3635C621348144B036010232A
:100A30004360002383608022C2600361436183615D
:100A400080235B01C36103F03DFB002806D10A4B04
:100A5000A3635C62B0E7FFF76BFEE2E7FFF768FEB7
:100A6000F5E7C0460058004000100240000400486E
:100A7000A004002058000240E4040020440002408A
:100A800000B583B00368134A934205D08022D20593
:100A900093420CD003B000BD0F4A91698020000141
:100AA00001439161936903400093009BF2E70A4A76
:100AB000D16901231943D161D26913400193019B8C
:100AC000002200210F2003F0B5FB0F2003F0E2FB12
:100AD000E0E7C046002C01400010024010B50022A3
:100AE0001149124804F0BDF8002811D110490F48EF
:100AF00004F0D3F800280ED10E490C4804F086FF0C
:100B000000280BD1094804F0D1F8002809D110BD04
:100B1000FFF70EFEEAE7FFF70BFEEDE7FFF708FE33
:100B2000F0E7FFF705FEF2E7780000204806002016
:100B3000E4000020C800002012230B80004870470A
:100B40009400002004230B8000487047A800002078
:100B500030B500230AE05D0037344C5500015C00DD
:100B600001340C19002525700133DBB2934206D203
:100B7000040F092CEFD85D0030344C55EEE730BD42
:100B800070B50B4B18680B4B1D680B4B1B68C018DE
:100B9000002800D170BD094CA11C0822FFF7D8FF26
:100BA0002100123104222800FFF7D2FFF2E7C046ED
:100BB000ACF7FF1FB0F7FF1FB4F7FF1FAC0000201A
:100BC00010B51A230B80FFF7DBFF014810BDC046AC
:100BD000AC00002010B50A00002805D105490648E0
:100BE00004F037FD034810BD0249034804F031FD0D
:100BF000F8E7C0460C090020EC5A000810B50A00BE
:100C0000034C2100034804F024FD200010BDC04621
:100C10000C090020085B000810B50A00002805D167
:100C20000549064804F015FD034810BD0249034874
:100C300004F00FFDF8E7C0460C0900201C5B00081B
:100C400010B50A00002805D10549064804F001FD49
:100C5000034810BD0249034804F0FBFCF8E7C04616
:100C60000C090020285B0008002070470020704716
:100C700010B50100044C200004F0DCFE200004F05C
:100C8000E0FE002010BDC0464806002010B5064C0E
:100C900000220649200004F0C2FE0549200004F0AD
:100CA000C9FE002010BDC04648060020F40E0020FA
:100CB0000C0B0020022804D005D8002800D0022008
:100CC00070470120FCE70220FAE710B5FFF792FC1D
:100CD00010BD000000B583B002680C4B9A4201D0F1
:100CE00003B000BD0A4AD169802000040143D161EC
:100CF000D36903400193019B002200211F2003F0D0
:100D000099FA1F2003F0C6FAEAE7C046005C0040EB
:100D10000010024010B50100BC239B00C058403BAE
:100D20009C46614403F0DEFF10BD10B50300BC22F9
:100D3000920080588A005218D2009B187D33FF33EE
:100D40001A6804F001F810BD10B50300BC2292002F
:100D500080588A005218D2009B18DA6B04F046F8CB
:100D600010BD10B5BC239B00C05804F001F910BDA4
:100D700070B504008368022B09D1BC25AD000121A8
:100D8000605904F0D7F8605904F0A5F870BDFFF77A
:100D9000CFFCF2E710B50400BC239B00C05804F060
:100DA000CDF8A369002B04D0024A136906210B4336
:100DB000136110BD00ED00E010B504008369002B45
:100DC00005D1BC239B00E05804F0C4F810BD044AD0
:100DD000136906218B431361FFF777FFF1E7C046E4
:100DE00000ED00E070B504001D48BC239B00C4501A
:100DF000303BE0501B4B036008234360063B83609D
:100E0000036100238361C361036200F0AFFF002828
:100E100023D1B025AD00182300220021605901F034
:100E2000F9FE582300228021605901F0F3FEC0230F
:100E300000228121605901F0EDFE88235B00002231
:100E40000121605901F0E6FE605980235B00002219
:100E5000822101F0DFFE002070BDFFF769FCD8E7BA
:100E6000DC120020005C004010B5B0239B00C0588D
:100E700000F0EEFFFFF71EFF10BD10B514001A00C2
:100E8000B0239B00C058230001F07AFDFFF712FF4A
:100E900010BD10B5B0239B00C05801F0B0FDFFF7A6
:100EA00009FF10BD10B5B0239B00C05801F03EFEF5
:100EB000FFF700FF10BD10B5B0239B00C05801F034
:100EC0006CFEFFF7F7FE10BDB0239B00C3584AB27B
:100ED000002A09DB7F220A4091008918C9005B18AB
:100EE0006B33FF33187870477F220A40013291003C
:100EF0008918C9005B189878F5E710B5B0239B00F6
:100F0000C05801F053FCFFF7D5FE10BD10B5B0245A
:100F1000A400005901F0DCFDFFF7CCFE10BD10B5B8
:100F2000B024A400005901F09EFDFFF7C3FE10BDE0
:100F300010B5B0239B00C05801F0C0FD10BD0000EB
:100F40000048704730020020704700004423002210
:100F5000C252043B014AC2520020704780BFFFFFCB
:100F60004022835A02490B40835200207047C046FA
:100F70007F40000084B0019102920393402201233C
:100F8000835200238352043283520C328352002056
:100F900004B07047F0B503000D78AD0045192A88FC
:100FA000B1480240C87802285AD00AD8002853D045
:100FB000012804D18020C0000243002009E0012064
:100FC00007E0032804D1C020C0000243002000E055
:100FD0000120A64C224392B22A800A7896009E19DC
:100FE00035882DB2A24F3D402A4392B21443A4B299
:100FF00034800A7B002A00D090E04A78002A3CD056
:1010000050229C5A1C190A78D20012198024E4003C
:10101000A4466244CC886408640014800A78920074
:101020009A181488640606D514883D002540914C12
:101030002C43A4B21480CA78012A13D00A789200F3
:101040009B181A888C490A4020214A4092B287494D
:101050000A4392B21A804BE08024A4002243B8E7EE
:101060000020B6E70A7892009B181A88824911403E
:101070007E4A0A4392B21A803AE050255C5B1C1902
:101080000A78D20012197D4CA4466244CC886408C8
:10109000640014805C5B1C190A78D2001219784C29
:1010A000A44662440C69002C23D11488754D2C4051
:1010B00014801488744D2C43A4B214800A789200D2
:1010C0009A181488640406D51488694D25406F4C1D
:1010D0002C43A4B214800A7892009B1819886C4A99
:1010E0001140C02292015140604A0A4392B21A80D4
:1010F000F0BD3E2C07D86508E40700D50135AD02E8
:10110000ADB21580DAE76509E40600D1013DAD0214
:10111000ADB25D4C2543ADB21580CFE7CA78022A47
:1011200057D00A7892009A1814885A4D25404F4C8F
:101130002C43A4B2148050255C5B1C190A78D200A1
:1011400012198024E400A44662440C8964086400F7
:1011500014805C5B1C190A78D2001219474CA44613
:1011600062444C896408640014804A78002A3BD1A8
:101170000A7892009A181488640406D514883C4DA5
:101180002540424C2C43A4B214800A7892009A184D
:101190001488640606D51488354D2540354C2C43FB
:1011A000A4B214800C78A4001C192288384D154074
:1011B000C02292016A402D4D2A4392B222800A78C1
:1011C00092009B181A882C490A402A4392B21A802E
:1011D0008EE70A7892009A181488254D25402E4CE7
:1011E0002C43A4B21480A6E70A7892009A181488B7
:1011F000640406D514881E4D2540244C2C43A4B20B
:1012000014800A7892009A181488640606D5148807
:10121000174D2540174C2C43A4B21480CA78012ADC
:1012200017D00C78A4001C192288134D2A402025C1
:101230006A4092B20D4D2A4392B222800A789200FF
:101240009B181A8812491140084A0A4392B21A8020
:101250004EE70A7892009A181488074D2540034CEF
:101260002C43A4B21480E9E78F89FFFF8080FFFF41
:101270008F8FFFFFC080FFFFBF8FFFFF04040000C0
:1012800006040000FF83FFFF0080FFFF80C0FFFF18
:101290008FBFFFFF8F8EFFFF8081FFFF10B50B7B9D
:1012A000002B33D14B78002B18D00B789B00C31840
:1012B0001A88520606D51A884E4C14404E4A2243CC
:1012C00092B21A800B789B00C01803884B4A1A40D0
:1012D0004B4B13439BB20380002010BD0B789B0047
:1012E000C3181A88520406D51A88424C1440454A3D
:1012F000224392B21A800B789B00C0180388424A9E
:101300001A403F4B13439BB20380E5E74B78002B19
:1013100037D10B789B00C3181A88520406D51A8857
:10132000344C1440374A224392B21A800B789B0007
:10133000C3181A88520606D51A882E4C14402E4A15
:10134000224392B21A800B789B00C3181A88294C4A
:101350001440294A224392B21A800C78A40004193E
:101360002388294A1340264A13439BB223800B78D3
:101370009B00C018038821490B401A4392B2028097
:10138000AAE70B789B00C3181A88520406D51A885E
:10139000184C14401B4A224392B21A800B789B00CF
:1013A000C3181A88520606D51A88124C1440124ADD
:1013B000224392B21A800B789B00C3181A880D4CF6
:1013C0001440104A224392B21A800C78A4000419E7
:1013D00023880A4A13400A4A13439BB223800B789E
:1013E0009B00C018038808490B401A4392B2028040
:1013F00072E7C0468F8FFFFFC080FFFFBF8FFFFFE8
:101400008080FFFF80C0FFFF8FBFFFFF4B78002B66
:101410000ED00B789B00C01803880C4A1340102292
:1014200053409BB20A4A13439BB20380002070478B
:101430000B789B00C0180288064B1A4080235B0182
:101440005A40034B13439BB20380EFE7BF8FFFFF6C
:101450008080FFFF8FBFFFFF10B50B7B002B3AD1C1
:101460004B78002B1DD00B789B00C3181A885206AE
:1014700006D51A88194C1440194A224392B21A8090
:10148000CB78012B27D00B789B00C0180388154A16
:101490001340202253409BB2134A13439BB2038054
:1014A00019E00B789B00C3181A88520406D51A88D5
:1014B0000A4C14400D4A224392B21A800B789B00CA
:1014C000C01802880A4B1A40C0239B015A40064BA1
:1014D00013439BB20380002010BDC0468F8FFFFFD7
:1014E000C080FFFFBF8FFFFF8080FFFF80C0FFFF36
:1014F0008FBFFFFF002902D14C238022C25200205F
:10150000704700005822835A02490B439BB2835212
:10151000002070470080FFFF4423C05A80B270470C
:1015200010B501335B0810188022D2009446604445
:10153000002B08D00C784A78120222430280023035
:101540000231013BF4E710BD70B505000C004A788C
:10155000012A2ED00B7B002B00D053E28B690A6945
:10156000934200D835E29B1A8B615023E95A6918DF
:101570002378DB005B18BA498C466344002A00D00C
:101580002BE21A88B7490A401A801A88B6490A43DA
:1015900092B21A80207880002D182A88B34B1A4006
:1015A000C0239B015A40B24B13439BB22B800020B7
:1015B00070BD8E6909698E4200D90E00237B002B15
:1015C00024D0E378022B41D0236A9B1B236223782B
:1015D000990069180988490600D4BEE1002A00D0A4
:1015E000AAE15032AA5AAA18DB009B189C4A9446DA
:1015F0006344002E00D08AE11A889A490A401A8072
:101600001A8899490A4392B21A809FE1B6B2E288D9
:10161000330061692800FFF783FF5023EA5AAA18B4
:101620002378DB009B18934A944663441E802078FD
:1016300080002D182B88904A1340302253409BB2D3
:101640008B4A13439BB22B800020B1E7236A994257
:1016500000D341E123789B00EB181A888749114099
:10166000874A0A4392B21A80236A9B1B236223781B
:101670009A00AA181288520600D48DE06278002AD7
:1016800028D15032AA5AAA18DB009B18744A9446F3
:101690006344002E09D11A8872490A401A801A88B8
:1016A00071490A4392B21A8016E03E2E07D872089A
:1016B000F10700D50132920292B21A800CE0720951
:1016C000F10600D1013A920292B267490A4392B2FE
:1016D0001A8001E0012A26D06289B3B2616928002C
:1016E000FFF71EFF63699B196361236A22699342B6
:1016F00024D99B1B23626378002B38D15033EA5ADC
:10170000AA182378DB009B185A4A94466344002E9B
:1017100018D11A8853490A401A801A8852490A4334
:1017200092B21A8025E04F32AA5AAA18DB009B1801
:101730004B4A94466344B2B21A80CDE7002222623B
:101740001E00D8E73E2E07D87208F10700D50132F7
:10175000920292B21A800CE07209F10600D1013AAD
:10176000920292B240490A4392B21A8001E0012BE0
:1017700006D02289B3B261692800FFF7D1FE56E78F
:101780004F33EA5AAA182378DB009B18394A94464B
:101790006344B2B21A80ECE76278002A28D1503252
:1017A000AA5AAA18DB009B18324A94466344002EBA
:1017B00009D11A882B490A401A801A882A490A43F3
:1017C00092B21A8016E03E2E07D87208F10700D5B3
:1017D0000132920292B21A800CE07209F10600D135
:1017E000013A920292B220490A4392B21A8001E071
:1017F000012A26D02289B3B261692800FFF790FE42
:1018000063699B196361236A2269934224D99B1BF4
:1018100023626378002B4AD15033EA5AAA182378FE
:10182000DB009B180E4A94466344002E2AD11A8886
:101830000C490A401A801A880B490A4392B21A804E
:1018400037E04F32AA5AAA18DB009B18094A94467F
:101850006344B2B21A80CDE7002222621E00D8E7AC
:1018600006040000FF83FFFF0080FFFF8FBFFFFF24
:101870008080FFFF02040000BF8FFFFF8F8FFFFFFC
:101880008081FFFF3E2E07D87208F10700D5013294
:10189000920292B21A800CE07209F10600D1013A6C
:1018A000920292B2C2490A4392B21A8001E0012B1D
:1018B00006D06289B3B261692800FFF731FEB6E64F
:1018C0004F33EA5AAA182378DB009B18B94A94468A
:1018D0006344B2B21A80ECE722789200AA18118809
:1018E000B5480840B549014389B211805022A95A30
:1018F00069182278D2005218B1498C4662449BB2D2
:101900001380228961692800FFF70AFE8FE63E2EC8
:1019100007D87208F10700D50132920292B21A80FC
:1019200014E07209F10600D1013A920292B2A04984
:101930000A4392B21A8009E05022AA5AAA18DB0080
:101940009B189C4A94466344B2B21A806289B3B22F
:1019500061692800FFF7E4FD69E6002A28D15032CA
:10196000AA5AAA18DB009B18954A94466344002E95
:1019700009D11A8893490A401A801A888C490A4367
:1019800092B21A801EE03E2E07D87208F10700D5E9
:101990000132920292B21A8014E07209F10600D16B
:1019A000013A920292B282490A4392B21A8009E045
:1019B0005022AA5AAA18DB009B18814A9446634415
:1019C000B2B21A802289B3B261692800FFF7A8FD7C
:1019D0002DE600228A611A00C7E53E2A07D8510881
:1019E000D20700D50131890289B21980D2E55109A7
:1019F000D20600D10139890289B26D4A114389B2F8
:101A00001980C7E5CB78022B3AD0012B00D005E135
:101A100089692369994200D8B1E0C91AA161002AF5
:101A200014D15032A95A69182278D2005218644948
:101A30008C466244002B00D0A5E01188614801402B
:101A4000118011885A48014389B211806278002AB6
:101A500000D0D4E05032A95A69182278D200521826
:101A600054498C466244002B00D0B3E0138855499A
:101A70000B40138013884E490B439BB2138089E5BA
:101A8000002A14D14E33C25A82180B78DB009B18FF
:101A90004B4A944663440A69002A21D11A8849496D
:101AA0000A401A801A8842490A4392B21A8063781F
:101AB000002B3FD15033EA5AAA182378DB009B1839
:101AC0003C4A944663442269002A1ED11A883D4943
:101AD0000A401A801A8836490A4392B21A802BE0CB
:101AE0003E2A07D85108D20700D50131890289B2B0
:101AF0001980DCE75109D20600D10139890289B287
:101B00002B4A114389B21980D1E73E2A07D85108E0
:101B1000D20700D50131890289B219800CE0510940
:101B2000D20600D10139890289B2214A114389B212
:101B3000198001E0012B16D0E369002B00D129E5C3
:101B400023789B00EB181A881F490A408A4202D06A
:101B5000002A00D01EE51A881C4911401C4A0A437D
:101B600092B21A8016E54F33EA5AAA182378DB009E
:101B70009B18104A94466344228A1A80DCE70023AB
:101B8000A3610B004BE73E2B07D85908D80700D5B7
:101B90000131890289B2118058E75909D80600D16C
:101BA0000139890289B20248014389B211804DE7A7
:101BB0000080FFFF060400008F8EFFFF8080FFFF84
:101BC00002040000FF83FFFF404000008F8FFFFFF3
:101BD000C080FFFF3E2B07D85908DB0700D5013135
:101BE000890289B21180D5E45909DB0600D1013997
:101BF000890289B20A4B194389B21180CAE4012AC9
:101C000000D0C7E44F32A95A69182278D20052187E
:101C100004498C4662449BB21380BBE40120C7E4B4
:101C20000080FFFF0604000010B55C081018802239
:101C3000D20094466044002C07D0028802300A701B
:101C4000120A4A700231013CF5E7DB0701D503882F
:101C50000B7010BD70B553043ED504685023E35A91
:101C60000D78EE009B191B193A4CA44663441C885E
:101C7000A405A40D8B69A34224D31B1B8B618B6924
:101C8000002B0DD1AD0003689C4665442E88324B75
:101C90001E4080239B015E40304B33439BB22B8020
:101CA00053060BD50A78920003689C466244138859
:101CB0002B4D1D402B4B2B439BB21380002C04D18A
:101CC000200070BD00238B61D9E700680A8949694B
:101CD0002300FFF7A9FFF3E704685023E35A0D78C8
:101CE000EE009B191B19204CA44663441C88A405D4
:101CF000A40D8B69A34229D31B1B8B618B69002B1D
:101D00000DD1AD0003689C4665442E88124B1E40E1
:101D100080239B015E40114B33439BB22B805306C3
:101D20000BD40A78920003689C46624413880C4DD9
:101D30001D400C4B2B439BB21380002CC0D000687D
:101D40004A8949692300FFF76FFFB9E700238B61D8
:101D5000D4E7C046020400008FBFFFFF8080FFFF72
:101D60008F8FFFFFC080FFFF0604000070B586B0B4
:101D7000041E69D0354BC35C002B22D0334B0322A9
:101D8000E2542068FFF7ECF80021606881421FD21E
:101D90004D1CAB005A19D200A218012050705A19DC
:101DA000D20011558A005018C0002018C1865B1956
:101DB000DB00E3180026DE708663C6630664E9B2C2
:101DC000E3E7AA239B000022C254FEF783FFD5E776
:101DD000002119E08A005318DB00E3181E006A3660
:101DE000FF3600253570013E3170033635700D36F3
:101DF00035607D33FF331D605218D200A218813246
:101E0000FF3215600131C9B28842E3D82300103394
:101E10006A4623CB23C203CB03C26168A268E3688E
:101E20002068FFF7A7F824230022E254074B013271
:101E3000E254E369012B02D0002006B070BD2000FF
:101E400000F005FF0020F8E70120F6E7A9020000F6
:101E500070B50400AA239B00C35C012B0DD0AA25FA
:101E6000AD00012343550068FFF770F82068FFF7C5
:101E700049FB00236355002070BD0220FCE70000F1
:101E800070B505000C001600530600D4ECE00268A3
:101E90005023D35A0978C8001B189B18AB4A9446A4
:101EA00063441A889205920DA369934241D99B1A03
:101EB000A361A369002B5AD16378002B3CD12B6816
:101EC00050229A5A9B18C018A04B9C466044038825
:101ED0009F4A1340038003889E4A13439BB20380AA
:101EE0002B686278002A34D150329A5A9A18237893
:101EF000DB009B18984A944663441A8894490A4028
:101F00001A801A8893490A4392B21A8021782800CD
:101F1000FEF71AFF73043BD5227892002B689C468B
:101F2000624413888D4919408D4B0B439BB213803B
:101F30002EE00023A361BCE7012BD1D12B685022F6
:101F40009A5A9B18C018814B9C466044002303801A
:101F5000C6E7012ADAD14F329A5A9B182278D2006A
:101F6000D3187D4A9446634400221A80CEE7730456
:101F70000AD589002B689C4661440B887748184035
:101F8000774B03439BB20B802423E35C012B0FD0E0
:101F9000296823789B00C9180B88724A13403022A5
:101FA00053409BB2704A13439BB20B80002070BD1C
:101FB00063699B186361E3699B18E361216A236984
:101FC00099421AD3C91A21626278002A36D12A6846
:101FD0005021515A51182278D20052185B498C4630
:101FE0006244002B15D11188594801401180118895
:101FF0005848014389B2118022E0002903D12423EB
:10200000E1541300E0E700232422A35423620B00D1
:10201000DAE73E2B07D85908D80700D501318902E5
:1020200089B211800CE05909D80600D10139890222
:1020300089B24848014389B2118001E0012A06D0E3
:102040009BB2228961692868FFF76AFAA0E72A68CB
:102050005021515A51182278D20052183B498C46CF
:10206000624499B21180EBE702685023D35A097891
:10207000C8001B189B18384A944663441A88920576
:10208000920DA369934242D39B1AA361A369002BCB
:102090006CD16378002B3DD12B6850229A5A9B1843
:1020A00018182A4B9C4660440388294A1340038031
:1020B0000388284A13439BB203802B686278002A66
:1020C00035D150329A5A9B182278D2009B18224A56
:1020D000944663441A881E490A401A801A881D498A
:1020E0000A4392B21A8021782800FEF72DFE73046D
:1020F00000D54DE7227892002B689C4662441388F5
:1021000016491940164B0B439BB2138040E700233E
:10211000A361BBE7012BD0D12B6850229A5A9B18A0
:1021200018180A4B9C46604400230380C5E7012A27
:10213000D9D14F329A5A9B182278D2009B18064A5E
:102140009446634400221A80CDE7C0460204000092
:10215000FF83FFFF0080FFFF060400008F8FFFFF5B
:1021600080C0FFFFBF8FFFFF8080FFFF73040AD492
:1021700089002B689C4661440B8833481840334BD8
:1021800003439BB20B802423E35C012B00D0FFE6CA
:1021900063699B186361E3699B18E361216A2369A2
:1021A00099421AD3C91A21622A686178002935D167
:1021B0005031515A52182178C900521824498C467E
:1021C0006244002B15D111882248014011801188EA
:1021D0002148014389B2118022E0002903D1242340
:1021E000E1541300E0E7002323622422A3540B00F0
:1021F000DAE73E2B07D85908D80700D50131890204
:1022000089B211800CE05909D80600D10139890240
:1022100089B21148014389B2118001E0012906D039
:102220009BB2628961692868FFF77AF9B0E64F319D
:10223000515A52182178C900521805498C466244F7
:1022400099B21180ECE7C0468F8FFFFF80C0FFFF7F
:1022500006040000FF83FFFF0080FFFFF8B5CE46B5
:10226000474680B50400B6E00388C24A1A40C24B14
:1022700013439BB2038021685023CB5A2822A25CCF
:10228000D2009B185B18BD4A944663441B889B058B
:102290009B0D6364E26B94466344E363002120007A
:1022A000FEF752FD2423E35C002B00D193E0236C66
:1022B000002B00D08FE02422A35C802149420B43F5
:1022C000DBB2CC31206843520023A35483E0502377
:1022D000C35AB4225200A25CD2009B181B18A84A11
:1022E000944663441B889B059B0D22006932FF3294
:1022F000D361AC2189006118D288FFF795FC226870
:102300001388A0490B4080210B439BB2138020000F
:10231000FEF700FD5FE03E2A07D85108D20700D53E
:102320000131890289B21980B5E05109D20600D184
:102330000139890289B2904A114389B21980AAE011
:10234000AE00801903889FB21BB2002B00DAAEE00A
:102350003B0640D5681C83001918C9008846A04474
:10236000226894466644328882491140824A0A4370
:1023700092B232804346DB78022B00D1BAE1AB0047
:102380005B19DB00E31800221A647B0600D47FE1AE
:1023900043465B78002B00D066E123685022995AAF
:1023A000591882001218D200135DDB005B18734AC3
:1023B000944663441A8874490A401A801A886E4900
:1023C0000A4392B21A806B1C9D00ED18ED00295D46
:1023D0002000FEF7B9FC20684423C35A1BB2002B2F
:1023E00000DBD2E14423C35A99B20F221D001540ED
:1023F0001342A5D1CB0600D436E7028893B212056A
:1024000000D564E71BB2002BE5DA03885D4A134070
:10241000802213439BB2038020685023C35AB42206
:102420005200A25CD2009B181B18554A9446634484
:102430001B889B059B0D22006932FF32D361002B64
:102440000FD0516900290CD01500D288FFF7ECFBA2
:102450006B69EA69944663446B6100212000FEF7D2
:1024600064FC23681A881205B5D450229A5A9B1826
:10247000434A9446634422006932FF321269002ABB
:1024800000D048E71A8840490A401A801A883A4919
:102490000A4392B21A8021680A883C4B1A40C02332
:1024A0009B015A403A4B13439BB20B8093E703883E
:1024B000344A1340802213439BB203807219D20026
:1024C0006932FF329046A0447319DB00E31875337C
:1024D000FF331B78002B5DD120685033C25A73192B
:1024E000DB00E3186933FF331B78DB00D3181B18BC
:1024F000234A944663441B889B059A0D9146002B02
:102500002AD14B46AA005219D200A21810008530D9
:10251000FF3001684944016011007D31FF310868D6
:10252000484408608132FF321268002A09D0AA00AC
:102530005219D200A2187932FF321268934200D3A6
:102540008DE0AB005B19DB00E3186933FF331978CA
:102550002000FEF7EAFBFBE67319DB00E3181A0024
:102560006F32FF3212887D33FF3319684B46FFF715
:102570005BFBC6E70F8FFFFF0080FFFF0204000038
:10258000060400008F0F0000FF83FFFF8FBFFFFFD7
:102590008080FFFFAB005B19DB00E3186C33FF3377
:1025A0001B78022B36D0AB005B19DB00E3186933D4
:1025B000FF33197889002268944661440A88754877
:1025C0001040754A024392B20A8020681B789A0034
:1025D00082181288520424D55022825ADB00D31864
:1025E0001B186E4A944663441B889B059A0D9146BE
:1025F000002B00D185E7AB005B19DB00E3181A0064
:102600007132FF3212887D33FF3319684B46FFF772
:102610000BFB76E73A0041462000FFF71BFB8146A3
:102620006FE75022825ADB00D3181B185C4A94468D
:1026300063441B889B059A0D9146002B00D160E7EF
:10264000AB005B19DB00E3181A007332FF3212880B
:102650007D33FF3319684B46FFF7E6FA51E74146F1
:102660002068FEF771FF73E6012B00D0ABE623680C
:102670005022995A59186B1C9A00D218D200135D37
:10268000DB005B18454A9446634400221A809AE6B0
:102690002268691C8B005B18DB00E3185B78002B59
:1026A00015D15033D35AD2188B005B18DB001B5D59
:1026B000DB009B183A4A944663441A8839490A4019
:1026C0001A801A8838490A4392B21A807BE6012B95
:1026D00000D078E64F33D35AD218691C8B005B18B0
:1026E000DB001B5DDB009A182D4B9C4662440023E7
:1026F000138068E6FB0542D420685023C35A6E1C41
:10270000B2009219D200125DD2009B181B18234A06
:10271000944663441A889205920DAB005B19DB0066
:10272000E3181E6C964215D9AB005B19DB00E31869
:10273000B61A1E64AB005B19DB00E3181B6C002BA0
:102740000FD16B1C9D00ED18ED00295D2000FEF7F8
:10275000FBFA40E6AB005B19DB00E31800261E64C1
:10276000E8E7AB005E19F600A619F16B8F18F76366
:10277000736C9A1872644146FEF7E6FE2BE63A0047
:1027800041462000FFF77CFB25E600200CBC90466C
:102790009946F8BD8F8FFFFFC080FFFF0204000045
:1027A00006040000FF83FFFF0080FFFF70B50400F8
:1027B000AA239B00C35C012B0CD0AA25AD000123EA
:1027C00043552333C1540068FEF794FE002363553C
:1027D000002070BD0220FCE770B504000068FEF721
:1027E0009BFE030400D57DE02068FEF795FE4305BF
:1027F00000D57BE02068FEF78FFE430405D52168F5
:1028000044228B5A574803408B522068FEF784FEBF
:10281000830405D5216844228B5A534803408B52C8
:102820002068FEF779FEC30418D521684023CA5AF0
:1028300004208243CA522168CA5A04308243CA52D1
:10284000B8239B00E35C012B5ED02000FEF7B4FAB6
:10285000216844228B5A454803408B522068FEF77A
:102860005BFE030559D42068FEF756FE030628D503
:10287000216844228B5A802083438B52B8239B00CB
:10288000E35C002B60D12168043A8B5A0420034397
:102890009BB28B5221688B5A082003439BB28B5208
:1028A000B8239B003F3AE25454232268D25A92083C
:1028B000183B1340B9229200A3500121200000F0E0
:1028C000DBF92068FEF728FE830541D42068FEF777
:1028D00023FEC30505D5216844228B5A24480340B2
:1028E0008B5270BD2000FFF7B9FC7DE721684422C0
:1028F0008B5A204803408B522000FEF739FA002102
:102900002000FFF753FF75E7B8239B000022E25435
:102910000021200000F0B0F997E7216840228B5A8F
:10292000082003439BB28B5220684421435A124D26
:102930002B40435221688B5A042003439BB28B5295
:102940002000FEF727FA8EE72000FEF723FAB8E70B
:10295000216844228B5A094803408B522000FEF71D
:1029600000FAB3E7FFBFFFFFFFDFFFFFFFEFFFFF4F
:10297000FFFEFFFFFFFBFFFFFFF7FFFFFFFDFFFF76
:1029800070B504000D0049B2002929DB07262E404E
:10299000B0008119C9006931FF3161188019C00088
:1029A00020186A30FF3000260670072005400D70A1
:1029B0000A61CB704A78002A00D0CD81022B19D051
:1029C000AA239B00E35C012B17D0AA25AD000123AD
:1029D00063552068FEF7DEFA00236355002070BDC2
:1029E00007202840461CB0008119C9006118012643
:1029F0004E70DAE700230B71E2E70220EFE770B5D3
:102A000004000A004BB2002B21DB072008408300A2
:102A10001918C9006931FF3161181B18DB00E31870
:102A20006A33FF330020187007231A400A70AA2364
:102A30009B00E35C012B14D0AA25AD000123635554
:102A40002068FEF72BFC00236355002070BD072390
:102A50000B40581C83001918C900611801204870E8
:102A6000E2E70220F2E7F8B507260E40B400A1190C
:102A7000C9006931FF314118A519ED0045192F0032
:102A80007D37FF373A602A008132FF32136004320B
:102A9000002313606A35FF352B70A419E400041974
:102AA0006934FF342670002E04D10068FEF74CFD17
:102AB0000020F8BD0068FEF747FDF9E707230B404B
:102AC0009900C918C90040188530FF300068704768
:102AD000F0B5C64600B507250D406F1CBE00F119C4
:102AE000C90088468044AC006419E4000419E2631C
:102AF00023644C229446A4444B3A61460A70A36472
:102B00000023636443465A70F619F6003554002DCD
:102B100007D100684146FEF717FD002004BC90462F
:102B2000F0BD00684146FEF70FFDF6E770B5040002
:102B30000B0007220A4041688A422AD859B200296C
:102B40001FDB9800C118C9006931FF316118C31833
:102B5000DB00E3186A33FF330020187001238B7009
:102B60000A70AA239B00E35C012B14D0AA25AD00B8
:102B7000012363552068FEF749FC002363550020BC
:102B800070BD501C83001918C900611801204870DD
:102B9000E4E70120F4E70220F2E770B504000B003F
:102BA0000F220A4041688A4230D85AB2002A23DBF9
:102BB0000720184082001118C9006931FF316118DF
:102BC0001218D200A2186A32FF32002010700022C0
:102BD0008A70073213400B70AA239B00E35C012B21
:102BE00016D0AA25AD00012363552068FEF734FCFA
:102BF00000236355002070BD07221A40501C82003C
:102C00001118C900611801204870E0E70120F2E7BF
:102C10000220F0E710B50C060CD507242140013145
:102C20008C006118C9004018002A0AD10273C380C1
:102C3000002010BD8C006118C9006931FF314018B7
:102C4000F2E70122027303811B0C4381F0E7016864
:102C5000BA239B000122C250083B0022C2545432C6
:102C60008B5A012003439BB28B528B5A02200343A1
:102C70009BB28B52002070477047000070B582B045
:102C8000041E00D17FE20368DB072BD5B34B5A68E3
:102C90000C231340042B1DD0B04B5A680C23134057
:102CA000082B0ED06368012B41D0002B56D1AB4BC3
:102CB0001A68AB490A401A601A68AA490A401A60A1
:102CC0003BE0A64B5B68C0225202134080225202B6
:102CD0009342E7D1A14B1B689B0303D56368002B8C
:102CE00000D153E223689B0777D59C4B5B680C228D
:102CF0001A4262D0994B5A680C231340082B53D0C8
:102D0000E368002B00D18AE0944A136801210B4349
:102D1000136000F033FC0500904B1B689B0775D4D3
:102D200000F02CFC401B0228F6D903202CE28B4A31
:102D3000116880235B020B4313606368002B25D06E
:102D400000F01CFC0500854B1B689B03CAD400F0F7
:102D500015FC401B6428F6D9032015E2052B09D089
:102D60007E4B1A687E490A401A601A687D490A40FB
:102D70001A60E2E7794B19688022D2020A431A608E
:102D80001968802252020A431A60D6E700F0F6FB67
:102D90000500724B1B689B03A4D500F0EFFB401BA2
:102DA0006428F6D90320EFE16C4B5B68C022520225
:102DB0001340802212029342A2D1684B1B689B07EA
:102DC00003D5E368012B00D0E2E164490B68F822E7
:102DD00093432269D20013430B6023681B0744D539
:102DE000E369002B2ED05D4A536A01210B435362E5
:102DF00000F0C4FB0500594B5B6A9B0735D400F01B
:102E0000BDFB401B0228F6D90320BDE153490B68E6
:102E1000F82293432269D20013430B60DDE74F4A47
:102E2000136801218B43136000F0A8FB05004B4B96
:102E30001B689B07D1D500F0A1FB401B0228F6D9E7
:102E40000320A1E1454A536A01218B43536200F0FC
:102E500095FB0500414B5B6A9B0706D500F08EFB96
:102E6000401B0228F6D903208EE123685B0700D4BB
:102E700080E03A4BDB69DB001DD4384AD169802001
:102E800040050143D161D36903400193019B0125B2
:102E9000354B1B68DB0510D5A368012B21D0002B17
:102EA00036D12E4B1A6A01218A431A621A6A0331FB
:102EB0008A431A621AE00025EAE72B4A1168802348
:102EC0005B000B43136000F059FB0600264B1B68A8
:102ED000DB05E1D400F052FB801B6428F6D9032007
:102EE00052E11E4A136A01210B431362A368002BAF
:102EF00024D000F043FB0600184B1B6A9B0737D415
:102F000000F03CFB801B194B9842F5D903203BE1B4
:102F1000052B09D0114B1A6A01218A431A621A6AD9
:102F200003318A431A62E1E70C4B1A6A04210A430F
:102F30001A621A6A03390A431A62D7E700F01EFBC5
:102F40000600064B1B6A9B0712D500F017FB801B7F
:102F5000064B9842F5D9032016E1C0460010024006
:102F6000FFFFFEFFFFFFFBFF007000408813000023
:102F7000012D39D02368DB0610D56369012B39D0C8
:102F8000053357D1894A536B04218B435363536BE9
:102F9000F4318B43A169C9000B43536323689B063B
:102FA0006ED5824B5A680C2313400C2B60D07F4B9C
:102FB0005A680C231340082B53D0236A002B7ED071
:102FC0007A4A516B80235B020B43536300F0D6FABD
:102FD0000500764B5B6BDB0352D400F0CFFA401B4D
:102FE0000228F6D90320CFE0704AD36970490B401C
:102FF000D361BFE76D4B5A6B04210A435A635A6B86
:1030000003390A435A6300F0B9FA0500674B5B6B5A
:103010009B0706D400F0B2FA401B0228F6D9032021
:10302000B2E062494B6BF8229343A269D20013438A
:103030004B63B3E75D4B5A6B04210A435A635A6BE7
:1030400003398A435A6300F099FA0500574B5B6BCA
:103050009B07A3D500F092FA401B0228F6D9032063
:1030600092E0524B5B68C022520213409342A4D1BB
:103070004E4B5B6BDB0303D5236A012B00D089E049
:10308000636A002B00D187E0484A51680C220A404D
:10309000082A60D0022B25D0444A136845490B40CA
:1030A000136000F06BFA0400404B1B689B0150D585
:1030B00000F064FA001B0228F6D9032064E03B4AC2
:1030C000536B3D490B40536300F058FA0500374BF2
:1030D0005B6BDB03D4D500F051FA401B0228F6D914
:1030E000032051E0314A136832490B40136000F06D
:1030F00045FA05002D4B1B689B0106D500F03EFAF2
:10310000401B0228F6D903203EE0284BDA6A0F2143
:103110008A43216B0A43DA625A6828490A40E16A05
:10312000A06A01430A435A601968802252040A4384
:103130001A6000F023FA04001C4B1B689B0106D4A4
:1031400000F01CFA001B0228F6D903201CE0002026
:103150001AE0002018E0012B20D0144B5A68D96ADD
:10316000C0235B021340A06A834219D10F230B4096
:10317000216B8B4216D1F0239B031A40E36A9A42DB
:1031800012D1002000E0012002B070BD0120FBE759
:103190000120F9E70120F7E70020F5E70120F3E738
:1031A0000120F1E70120EFE70120EDE700100240E8
:1031B000FFFFFFEFFFFFFFFEFFFFFEFFFF7FC2FFEE
:1031C00010B588B004AA1E4B13CB13C21B68136042
:1031D0006A461C4B13CB13C21B6813601A4B5A6808
:1031E0000C231340082B04D00C2B26D1174808B011
:1031F00010BD910C0F23194004A8445C1249C96A00
:103200000B406946C95CC0235B021A4080235B0205
:103210009A4208D0C0235B029A4209D00C48FDF7BD
:1032200011F86043E3E70A48FDF70CF86043DEE776
:103230000648FDF707F86043D9E70548D7E7C046D9
:10324000385B00084C5B000800100240006CDC0298
:1032500000127A0070B504000D00002800D186E04D
:10326000474B1A68012313408B420AD244490B682A
:10327000012293432B430B600B681A40AA4200D0F3
:1032800077E023689A070ED55B0705D53D4A51685C
:10329000E023DB000B4353603A4A5368F0218B4331
:1032A000A1680B4353602368DB0735D56368012BA6
:1032B00009D0022B24D0032B28D0324A126892075F
:1032C00005D4012052E02F4A1268920353D52D49AC
:1032D0004A680320824313434B6000F04FF9060015
:1032E000284B5B680C221A4063689B009A4213D0FB
:1032F00000F044F9801B244B9842F1D9032035E0BB
:10330000204A12689201E2D401202FE01D4A526B3C
:10331000D203DCD4012029E0194B1A6801231340A1
:10332000AB4209D916490B68012293432B430B602A
:103330000B681A40AA4220D123685B0706D5114AC0
:10334000536812490B40E1680B435360FFF738FFA5
:103350000C4B5A6812090F2313400D4AD35CD84016
:103360000C4B1860032000F0C5F8002070BD012050
:10337000FCE70120FAE70120F8E70120F6E7C04664
:10338000002002400010024088130000FFF8FFFFF9
:10339000605B0008E000002070B582B004000368A4
:1033A000DB0337D54C4BDB69DB0067D44A4AD16974
:1033B000802040050143D161D36903400193019B03
:1033C0000125464B1B68DB055AD5434B1A6AC023BF
:1033D0009B00110019401A4213D0626813408B42BF
:1033E0000FD03D4B186A3E4A02401E6A80214902B6
:1033F00031431962196A3B4E314019621A62C307A0
:1034000052D4354A136A36490B4061680B43136244
:10341000012D58D02368DB0706D52F4A136B0321F3
:103420008B43A1680B43136323689B0706D52A4A85
:10343000136B2D490B40E1680B43136323689B0614
:1034400006D5254A136B10218B4321690B43136367
:1034500023689B0306D5204A136B80218B43A16907
:103460000B43136323685B0532D51B4A136B402162
:103470008B4361690B43136300202AE00025A0E71A
:10348000164A116880235B000B43136000F076F846
:103490000600124B1B68DB0597D400F06FF8801B09
:1034A0006428F6D9032014E000F068F806000A4BFF
:1034B0001B6A9B07A5D400F061F8801B0B4B984258
:1034C000F5D9032005E0D36909490B40D361A1E791
:1034D000002002B070BDC0460010024000700040E5
:1034E000FFFCFFFFFFFFFEFFFFFFFCFF8813000054
:1034F000FFFFFFEF10B504000F4B1978FA20800092
:10350000FCF7A0FE01000D4B1868FCF79BFE00F0D5
:10351000CDFE00280DD1032C01D901200AE0013095
:1035200000222100404200F085FE054B1C60002077
:1035300000E0012010BDC046D8000020E0000020BF
:10354000DC00002010B5064A136810210B431360FD
:103550000320FFF7CFFFFDF7BDF9002010BDC046E7
:1035600000200240034A1168034B1B785B1813606C
:103570007047C046D0150020D8000020014B1868C5
:103580007047C046D015002070B50400FFF7F6FF65
:103590000500631C02D0044B1B78E418FFF7EEFF14
:1035A000401BA042FAD370BDD800002003689A697E
:1035B000920701D500229A6203689A69D20703D460
:1035C0009A6901210A439A6170470000F0B5059C91
:1035D00005686868660D8027FF003740054E3E434A
:1035E000B0438905890D1204114319432143014356
:1035F0006960F0BDFF63FF03F8B505000F0016001A
:1036000003689A69D2063BD55A68920104D4596876
:103610008022D2010A435A602B689C69A20615D405
:103620007B1CF9D0FFF7AAFF801BB84201D8002FFE
:10363000F2D16B6C202213436B644123EA540023C4
:103640002232AB54023AAB5401201AE01022DA6164
:103650002B682024DC612800FFF7A8FF2A68536844
:1036600008490B4053606B6C042213436B64412385
:10367000EC5400233E32AB54023AAB54012000E03C
:103680000020F8BD00E800FE70B504000D00160033
:1036900023689B699B071CD4320029002000FFF798
:1036A000ABFF002817D16B1CF2D0FFF767FF801B20
:1036B000A84201D8002DEBD1636C20221343636430
:1036C0004123E25400232232A354023AA35401209E
:1036D00000E0002070BD0120FCE7F0B5C64600B553
:1036E00007000D0090461E003B689C692C40641B3F
:1036F00063425C41444516D1731CF5D0FFF73EFF91
:10370000069BC01AB04201D8002EEDD17B6C20225E
:1037100013437B644123FA5400232232BB54023A00
:10372000BB54012000E0002004BC9046F0BD000026
:1037300070B582B0040015001E008023F2B2194853
:1037400000905B042000FFF741FF079A06992000D4
:10375000FFF79AFF00281ED1012E0ED12368EDB28B
:103760009D62079B0093069B002280212000FFF7AB
:10377000B4FF002813D102B070BD23682A0A9A62F0
:10378000079A06992000FFF77FFF002805D12368DC
:10379000EDB29D62E5E70120EDE70120EBE70120B6
:1037A000E9E7C0460020008070B582B00400150033
:1037B0001E00DAB2184B00930023FFF707FF079AA9
:1037C00006992000FFF760FF00281ED1012E0ED1C0
:1037D0002368EDB29D62079B0093069B0022402167
:1037E0002000FFF77AFF002813D102B070BD2368D4
:1037F0002A0A9A62079A06992000FFF745FF0028D7
:1038000005D12368EDB29D62E5E70120EDE70120D7
:10381000EBE70120E9E7C0460020008070B5050015
:103820000C0016002B689B699B061AD432002100FD
:103830002800FFF7E1FE002815D1FFF79FFE801B4F
:10384000A04201D8002CEDD16B6C202213436B6495
:103850004123EA5400232232AB54023AAB540120F4
:1038600070BD0020FCE70120FAE7000010B5041E3F
:1038700059D04123C35C002B43D041232422E2547E
:103880002268136801218B4313602268274B61680B
:103890000B4013612268936825490B409360E368ED
:1038A000012B34D0226884231B02A1680B43936050
:1038B000E368022B32D0226851681E4B0B435360E1
:1038C0002268D3681A490B40D360236962691343A5
:1038D000A269120221681343CB602268E369216A5E
:1038E0000B4313602268136801210B43136000230C
:1038F000636441221F31A15423630132A354002089
:1039000010BD40330022C254FDF74AF8B5E72268E3
:1039100080231B02A1680B439360C9E723688022C0
:1039200012015A60C7E70120EAE7C046FFFFFFF037
:10393000FF7FFFFF00800002F0B587B00400039115
:10394000049205930CAB20CB1F884123C35C202B32
:1039500000D0B3E0002D18D0002F16D04023C35C58
:10396000012B00D1ADE040230122C254FFF706FE37
:103970000600802100901923012209022000FFF790
:10398000ACFE002806D0012099E080239B006364F0
:10399000012094E041232122E25401331F32E254FA
:1039A0000023636465626785636301960E9B0093E1
:1039B000059B049A03992000FFF7BAFE00280FD157
:1039C000638D9BB2FF2B10D9FF2323857F3B002201
:1039D00000925B04FF3203992000FFF7F7FD21E01E
:1039E00040230022E254012069E0628D92B22285D8
:1039F0008023D2B2002100919B0403992000FFF79D
:103A0000E5FD0FE0628D92B222858023D2B20021C3
:103A100000919B0403992000FFF7D8FD638D9BB2B2
:103A2000002B34D032000E992000FFF72DFE002825
:103A300049D12368626A12789A62636A01336362C9
:103A4000638D013B9BB26385238D013B9BB2238534
:103A5000628D92B2002AE1D0002BDFD100960E9B3E
:103A6000002280212000FFF738FE00282DD1638D31
:103A70009BB2FF2BC6D9FF2323857F3B00220092F8
:103A80005B04FF3203992000FFF7A0FDC6E7320078
:103A90000E992000FFF7C2FE002818D123682022CB
:103AA000DA6121684B680B4D2B404B604123E25497
:103AB00000232232A354023AA35400E0022007B0AC
:103AC000F0BD0220FBE70120F9E70120F7E7012024
:103AD000F5E7C04600E800FEF0B587B004000391AA
:103AE000049205930CAB20CB1F884123C35C202B91
:103AF00000D0B5E0002D18D0002F16D04023C35CB5
:103B0000012B00D1AFE040230122C254FFF736FD64
:103B10000600802100901923012209022000FFF7EE
:103B2000DCFD002806D001209BE080239B0063641D
:103B3000012096E041232222E25401331E32E25456
:103B40000023636465626785636301960E9B00933F
:103B5000059B049A03992000FFF726FE00280FD149
:103B6000638D9BB2FF2B10D9FF2323857F3B424AF5
:103B700000925B04FF2203992000FFF727FD21E05C
:103B800040230022E25401206BE0628D92B2228534
:103B90008023D2B2384900919B0403992000FFF79B
:103BA00015FD0FE0628D92B222858023D2B20021F2
:103BB00000919B0403992000FFF708FD638D9BB2E1
:103BC000002B36D000960E9B002204212000FFF728
:103BD00084FD002849D123685B6A626A1370636AB6
:103BE00001336362238D013B9BB22385628D013AD1
:103BF00092B26285628D92B2002ADFD0002BDDD1B5
:103C000000960E9B002280212000FFF766FD002811
:103C10002DD1638D9BB2FF2BC4D9FF2323857F3B1E
:103C2000002200925B04FF3203992000FFF7CEFCD4
:103C3000C4E732000E992000FFF7F0FD002818D1EC
:103C400023682022DA6121684B680C4D2B404B60C1
:103C50004123E25400232232A354023AA35400E049
:103C6000022007B0F0BD0220FBE70120F9E70120A8
:103C7000F7E70120F5E7C0460024008000E800FED9
:103C8000F0B5CE46474680B585B0060089469046D9
:103C90001D00002303934133C35C202B00D0A6E01A
:103CA00003689B691B0400D5A3E04023C35C012B80
:103CB00000D1A0E040230122C25401332332C25478
:103CC00000234364F368012B18D04B469A05920DEC
:103CD000A0239B01134332685360FFF74FFC07009A
:103CE00033689A6920241440621E9441E2B29C69B0
:103CF000102323405C1EA341DCB212E04B469A0520
:103D0000920D414B1343E6E733689A69202414402F
:103D1000621E9441E2B29B6910241C40631E9C41C8
:103D2000E4B2144317D16B1CEED0FFF727FCC01B85
:103D3000A84201D8002DE7D120224123F254736C10
:103D40001343736440230022F254012005B00CBCDD
:103D500090469946F0BD33689B69DB0622D50097F3
:103D60002B00002220213000FFF7B7FC002846D1AD
:103D700033681022DA6133681032DA61039B4345FD
:103D800022D0039B01330393039B43459AD3202204
:103D90004123F254736C1343736440230022F254A2
:103DA0000120D3E700972B00002220213000FFF7ED
:103DB00094FC002821D132682023D3614122B354DE
:103DC00020330022F254C1E7326851688023DB01BE
:103DD0000B43536000972B00002220213000FFF797
:103DE0007CFC00280DD133682022DA61C9E702206B
:103DF000ACE70220AAE70220A8E70120A6E70120FD
:103E0000A4E70120A2E7C04600200002F0B541234C
:103E1000C35C202B20D12033C35C012B1ED0402457
:103E200001220255412524234355066833689343F4
:103E30003360066833680A4F3B4033600668336876
:103E40001943316001680B6813430B60202343550D
:103E5000002303550020F0BD0220FCE70220FAE712
:103E6000FFEFFFFFF0B54123C35C202B1ED12033B1
:103E7000C35C012B1CD04024012202554125242380
:103E80004355066833689343336006683368094FC7
:103E90003B4009021943316001680B6813430B6012
:103EA00020234355002303550020F0BD0220FCE7EA
:103EB0000220FAE7FFF0FFFFF0B583B0002357E0E0
:103EC00084685F000326BE40B4432600CC68BC4033
:103ED00034438460446894434A681609012232409E
:103EE0009A402243426053E0DC080834A40026587C
:103EF00005321A4092000F279740BE430F69974042
:103F00003A003243225057E0042600E00026A64043
:103F100034003C4302329200474E9451474A1468A1
:103F2000EA432600AE434F68FF0301D52C43260029
:103F3000424C26606468260016404F68BF0301D5D6
:103F40002C4326003D4C6660A468260016404F684E
:103F5000FF0201D52C432600384CA660E4682240BD
:103F60004E68B60201D52A002243344CE260013388
:103F70000C682200DA405CD001229A4025001540EE
:103F80001442F4D003244E683440013C012C97D9EC
:103F900003224C682240032A09D0C2685E00032431
:103FA000B440A24314008A68B2402243C260032294
:103FB0004C682240022A97D004685E000322170052
:103FC000B740BC434F683A40B24022430260C0222F
:103FD00092024C681442CAD0194CA66901221643B9
:103FE000A661A46922400192019A9A08941CA40037
:103FF000114EA75903261E40B4000F26A640B74312
:104000009026F605B04281D00E4EB0420BD00E4E37
:10401000B0420AD00D4EB04209D00D4EB04200D190
:1040200072E7052673E7012671E702266FE703268C
:104030006DE703B0F0BDC046000001400004014040
:10404000001002400004004800080048000C00482E
:1040500000100048002A01D0816170478162FCE7AE
:10406000426913000B401B0491431943816170475F
:1040700070B5C56B0124066CB4406C600468636065
:104080004368102B04D0036899600368DA6070BD40
:1040900003689A600368D960F9E7000010B504006E
:1040A0000368064A9446634418001421FCF7CAF8D2
:1040B00080002064024BE36310BDC046F8FFFDBFE3
:1040C0000000024070B5041E20D021250223435574
:1040D00001680B680E4A1A40436880680343E06831
:1040E00003432069034360690343A0690343E06914
:1040F000034313430B602000FFF7D0FF0023A363AB
:10410000012262551F32A354002070BD0120FCE73C
:104110000FC0FFFF70B504002020205C012832D0C2
:104120002020012525540130205C012804D02023C3
:104130000022E254022070BD2030013525540020B9
:10414000A063256828680126B04328602000FFF797
:104150008FFFE36A002B0BD0226813680E210B43FC
:1041600013602268136801210B4313600020E2E70B
:10417000226813680A210B4313602268136806390A
:104180008B431360EDE70220D5E770B5C36B1A6867
:1041900004682568016C04238B401A4212D06B0717
:1041A00010D523689B0603D423680422934323601D
:1041B000C26B0423016C8B405360C36A002B00D098
:1041C000984770BD02238B401A4218D0AB0716D512
:1041D00023689B0606D423680A2293432360212385
:1041E000093AC254C26B0223016C8B4053602023F6
:1041F0000022C254836A002BE3D09847E1E70823EA
:104200008B401A42DDD02B07DBD523680E22934367
:104210002360C26B01231900046CA14051608363C9
:10422000212283541F330022C254036B002BC8D0B9
:104230009847C6E770B5002811DB8308134EC033DA
:104240009B009D5903242040C000FF22140084409D
:10425000A54389010A4082402A439A5170BD0F2329
:104260000340083B9B0806339B00094A944663447D
:104270005C6803221040C000FC3215008540AC434E
:1042800089010A40824022435A60E7E700E100E0EA
:1042900000ED00E0002805DB1F2318401E3B834093
:1042A000014A13607047C04600E100E001388023F6
:1042B0005B0498420FD2094A50600948036A1B0206
:1042C0001B0AC02109060B430362002393600733D6
:1042D0001360002070470120FCE7C04610E000E0BA
:1042E00000ED00E030B583B00400002301930368C3
:1042F000996803220A40012A0ED09968224A114285
:1043000012D19A6801210A439A60204B186820490B
:10431000FBF798FF019014E01A68D20731D4DA68ED
:104320001204EAD500202AE0A36B10221343A363F2
:10433000E36B0F3A1343E363012020E0019B013B51
:104340000193019B002BF9D1FFF718F905002368B1
:104350001B68DB0712D4FFF711F9401B0228F6D9BE
:1043600023681B68DB07F2D4A36B10221343A363FB
:10437000E36B0F3A1343E363012000E0002003B036
:1043800030BD0020FBE7C04617000080E0000020A1
:1043900040420F0070B5041E00D1B4E0836B002BC7
:1043A00000D180E0A36BDB0600D5A6E0226891680F
:1043B000042005000D40084200D09EE0A16B534B45
:1043C00019400633FF331943A163916801330B4051
:1043D000012B6ED0D36818218B43A1680B43D360A7
:1043E000226813699B009B0861680B431361226874
:1043F000D36847490B40D360237E9B03627ED20380
:104400001343A17E4A031343A26A012A58D0802293
:1044100052011343E26813432269022A52D02B430C
:104420002422A25C52001343E27E012A4CD0E269AE
:10443000C221FF318A4202D0216A0A431343216814
:10444000CA681A43CA60E26A802149058A420DD0CF
:10445000012A0BD0022A09D0032A07D0042A05D04A
:10446000052A03D0062A01D0072A0AD1206841690B
:1044700007229143416120684169E56A2A400A4365
:1044800042612268D26823490A409A422BD0A36B2A
:1044900012229343023A1343A363E36B0F3A13438D
:1044A000E36301202EE0C36334228354FCF72AFA2D
:1044B00078E71368DB079AD4D3681B0497D489E79D
:1044C0002A00A6E70425AAE7002903D18022520288
:1044D0001343ACE7A26B20210A43A263E26B1F39AE
:1044E0000A43E263A3E70023E363A36B032293433E
:1044F000023A1343A363002004E0A36B102213438A
:10450000A363012070BD0120FCE7C046FDFEFFFF54
:104510001902FEFFE7FF3F83F8B504000D00160007
:1045200003689B685B073ED43423C35C012B3CD0FB
:1045300034230122C254437E012B04D0FFF7D2FE64
:10454000071E2ED100E00027A36B194A1A408023D2
:104550005B001343A3630023E3633422A354236B60
:10456000144A9A62236B144ADA62236B134A1A6361
:1045700023681C221A602268536810210B43536081
:104580002268D3680F390B43D36021684031330070
:104590002A00206BFFF7BEFD2268936804210B43BD
:1045A00093603800F8BD0227FBE70227F9E7C04611
:1045B000FEF0FFFFC54500083746000843460008E7
:1045C0007047000010B5436A9A6B502111422BD1FD
:1045D000996B802292000A439A631A68D068C021BE
:1045E0000901084213D1997E002910D111680907E9
:1045F0000DD5916849070ED451680C208143516054
:104600009A6B0B490A400431FF310A439A63180040
:10461000FFF7D6FF10BD9A6B20210A439A63DA6B2D
:104620001F390A43DA63F2E71B6B1B6B9847F1E70C
:10463000FEFEFFFF704710B5406AFFF7FBFF10BD9D
:10464000704710B5406A836B402213438363C36B8A
:104650003C3A1343C363FFF7F3FF10BD30B583B09B
:104660000400002301933433C35C012B00D18BE0A1
:1046700034230122C25403689A68520776D4434A0D
:104680004868904257D09A6A01200D68A8400243BA
:104690009A62E36A8022520593421ED0012B1CD0FD
:1046A000022B1AD0032B18D0042B16D0052B14D0B4
:1046B000062B12D0072B10D0226850690723034025
:1046C0008868984209D05069072398435061206850
:1046D00042698D682B40134343610B681A00103AFE
:1046E000022A4DD82A4A1268102B0ED0112B09D05D
:1046F00080235B041343264A13600B68102B07D0FA
:10470000002038E08023DB03F4E780231B04F1E77B
:10471000204B18682049FBF795FD03008000C01866
:104720004000019002E0019B013B0193019B002BA3
:10473000F9D100201FE09A6A01200D68A840824349
:104740009A620B681A00103A022A1BD8104A1268A3
:10475000102B09D0112B05D0104B13400C4A1360BD
:10476000002008E00E4BF8E70E4BF6E7836B2022A3
:1047700013438363012034230022E25403B030BD8D
:104780000020F8E70020F6E70220F7E7011000001C
:1047900008270140E000002040420F00FFFFFFFE1D
:1047A000FFFFBFFFFFFF7FFF30B5036A046A0125EB
:1047B000AC4304628469EF35AC43120122430A24FE
:1047C000A3430B438261036230BD000030B5036A2E
:1047D0001024A34303628469036A054D2C4012032D
:1047E0002243A024A343090119438261016230BD21
:1047F000FF0FFFFF8368702293430B4307210B4396
:10480000836070473D23C35C012B26D13C330222D9
:10481000C2540268D36801210B43D3600368114A74
:1048200093420FD08022D20593420BD00E4A93427E
:1048300008D00E4A934205D01A6801210A431A6033
:1048400000200BE0996807220A40062A07D01A6860
:1048500001210A431A60002000E001207047002077
:10486000FCE7C046002C014000040040004001402D
:104870007047704770477047704710B50400036871
:104880001A6992070FD5DA6892070CD503225242B3
:104890001A610123037703689B699B0763D0FFF7C5
:1048A000E9FF0023237723681A69520712D5DA68D3
:1048B00052070FD5052252421A610223237723683B
:1048C0009A69C0239B001A4253D02000FFF7D2FF01
:1048D0000023237723681A69120710D5DA681207B4
:1048E0000DD5092252421A61042323772368DB691C
:1048F0009B0745D02000FFF7BDFF002323772368E7
:104900001A69D20612D5DA68D2060FD511225242A0
:104910001A61082323772368DA69C0239B001A42AF
:1049200035D02000FFF7A6FF0023237723681A69FC
:10493000D20702D5DA68D20730D423681A69120682
:1049400002D5DA68120630D423681A69520602D5F5
:10495000DA68520630D423681A69920602D5DA68FA
:10496000920630D410BDFFF784FF2000FFF783FFCD
:1049700097E72000FFF77DFF2000FFF77CFFA7E708
:104980002000FFF776FF2000FFF775FFB5E7200056
:10499000FFF76FFF2000FFF76EFFC5E702225242CC
:1049A0001A612000FFF764FFC7E7812252421A61B3
:1049B000200000F054F9C7E7412252421A6120005A
:1049C000FFF75AFFC7E7212252421A61200000F088
:1049D00045F9C7E70368214A904206D08022D205F4
:1049E000904202D01E4A904203D1702293434A68FB
:1049F00013431A4A904212D08022D20590420ED020
:104A0000174A90420BD0174A904208D0164A90425B
:104A100005D0164A904202D0154A904203D1154A59
:104A20001340CA681343802293434A6913430360C7
:104A30008B68C3620B688362084B984208D00A4BAC
:104A4000984205D0094B984202D0094B984201D1B7
:104A50000B690363012343617047C046002C01408A
:104A6000000400400020004000400140004401409C
:104A700000480140FFFCFFFF70B5041E26D03D2317
:104A8000C35C002B1CD03D2502236355210001C9C6
:104A9000FFF7A0FF01234622A354083AA354013292
:104AA000A3540132A3540132A3540132A35401325E
:104AB000A3540132A3540132A3546355002070BDA6
:104AC0003C330022C254FBF7DBFFDCE70120F6E7B2
:104AD00030B58468034D2C401B0213430B43234322
:104AE000836030BDFF00FFFF10B504003C23C35CB2
:104AF000012B00D178E03C230122C2540133013262
:104B0000C254026893683948034093600B68602B75
:104B100050D02AD8402B58D00CD9502B23D1CA685A
:104B200049682068FFF740FE50212068FFF762FEC9
:104B3000002005E0202B0ED009D9302B0BD001200E
:104B40003D230122E254013B0022E25410BD002B20
:104B500001D0102B05D119002068FFF74BFE002073
:104B6000EEE70120ECE70120EAE7802252019342C0
:104B700036D08022920193420DD1CB684A68896871
:104B80002068FFF7A5FF226891688023DB010B43B3
:104B900093600020D4E7702B24D1CB684A688968E1
:104BA0002068FFF795FF2268936877210B43936095
:104BB0000020C5E7CA6849682068FFF707FE602142
:104BC0002068FFF717FE0020BAE7CA684968206826
:104BD000FFF7EAFD40212068FFF70CFE0020AFE759
:104BE0000020ADE70120ABE70220AFE78800FFFF20
:104BF00030B53C23C35C012B28D03C230122C25496
:104C000001330132C25403685A689C687025AA4374
:104C10000D682A435A6003680D4A934209D08022E6
:104C2000D205934205D00B4A934202D00A4A9342DE
:104C300004D1802294434A6814439C603D2301229E
:104C4000C254013B0022C254002030BD0220FCE7C8
:104C5000002C0140000400400040014070477047B4
:104C6000704710B5002816D0AD239B00C358002B09
:104C700003D0AD239B000024C450002902D0AC23F4
:104C80009B00C150A7239B000121C1540270FCF777
:104C9000A9F8002010BD0220FCE7002904D0AD23B4
:104CA0009B00C150002070470220FCE710B5FCF7C4
:104CB000DBF8002010BD10B5AD239B00C358002BBE
:104CC00006D01B689847002800D110BD0220FCE7E1
:104CD0000220FAE710B5AD239B00C3585B689847E4
:104CE000002010BD70B50400AA239B00C518280041
:104CF00000F064F9A5239B000122E250114BE25A17
:104D0000163BE2501033E15C1F230B40012B0FD008
:104D1000022B12D0002B05D07F2399432000FCF7F3
:104D2000C1F803E02900200000F022FB002070BD44
:104D30002900200000F052FBF8E72900200000F0D5
:104D400080FBF3E7AE02000070B505000C00110017
:104D5000002C38D1A5239B00C358032B03D0052B6F
:104D600028D020003DE002005532FF32D36812699E
:104D700093420DD99B1A5530FF30C3609A4205D932
:104D80009AB2280000F0A9FC20002AE092B2F8E7CD
:104D9000AD239B00C3581B69002B04D0A7229200AF
:104DA000825C032A04D0280000F09FFC200018E059
:104DB0009847F8E7A5239B000022C2500021FCF78A
:104DC00071F820000DE0AD239B00C3589B69002BB8
:104DD00008D0A7229200825C032A05D121009847BF
:104DE000002070BD0220FCE70220FAE7F8B50500BC
:104DF0000C001100002C5BD1A5239B00C358022B93
:104E00000ED0042B01D0002B03D180212800FCF709
:104E100049F8A8239B00EB5C012B43D02000F8BD90
:104E2000026A466AB24220D8C76931003800FBF7EF
:104E30008FFA002906D1BE4204D8A6239B00EB5866
:104E40009F421ED3AD239B00EB58DB68002B04D0A0
:104E5000A7229200AA5C032A21D080212800FCF717
:104E600021F8280000F04DFCD3E7921B026292B2B9
:104E700000F01AFC0023002200212800FCF74FF864
:104E8000C7E70022280000F00FFCA6239B000022A9
:104E9000EA50002300212800FCF741F8B9E7280078
:104EA0009847DAE7A8239B000022EA542000B6E7DF
:104EB000AD239B00C3585B69002B08D0A72292004A
:104EC000825C032A05D1210098470020A7E7022031
:104ED000A5E70220A3E770B50400402300220021CB
:104EE000FBF7CBFF0125AC235B00E55040260C33DC
:104EF000E650253BFF3B002280212000FBF7BDFF51
:104F0000A5616662A7239B00E5540023A5229200B9
:104F1000A35063601032A350AE239B00E358002BD4
:104F200006D0AD239B00E3585B6800212000984722
:104F3000002070BD0174002070470000A7239B0073
:104F4000C15C034A81540422C25400207047C04609
:104F50009D020000A7239B00C35C042B01D000200E
:104F60007047024BC25C013BC254F8E79D0200004F
:104F700010B5A7239B00C35C032B01D0002010BDFC
:104F8000AD239B00C358DB69002BF7D09847F5E7AA
:104F9000030000201A78002A03D00130C0B2013388
:104FA000F8E7704710B54B88012B00D010BDA9233E
:104FB0009B000122C25000F098FBF7E70B780370CA
:104FC0004B7843708B78CA7812029B1843800B7918
:104FD0004A7912029B1883808B79CA7912029B1836
:104FE000C380704710B504008021FBF75BFF0021F0
:104FF0002000FBF757FF10BD30B583B005000C0053
:105000006B460022DA804A88130A072B00D9B6E0E3
:105010009B006549CB589F46AC239B00C3581B6837
:10502000007C6A46911D98476B4606331B88002B0F
:1050300003D0E288002A00D0A6E0E388002B00D14C
:10504000AEE003B030BD037C002B09D1AD239B0043
:10505000C3589B6A6A46901D984702234370E3E752
:10506000AD239B00C358DB6A6A46901D9847022314
:105070004370D9E7D2B2052A5DD892004B4B9B58BA
:105080009F46AC239B00C3585B68002B04D0007C78
:105090006A46911D9847C7E72100FFF7A3FFD0E7B5
:1050A000AC239B00C3589B68002B04D0007C6A464D
:1050B000911D9847B8E72100FFF794FFC1E7AC23A3
:1050C0009B00C358DB68002B04D0007C6A46911D0E
:1050D0009847A9E72100FFF785FFB2E7AC239B00C3
:1050E000C3581B69002B04D0007C6A46911D984769
:1050F0009AE72100FFF776FFA3E7AC239B00C35894
:105100005B69002B04D0007C6A46911D98478BE7B1
:105110002100FFF767FF94E7AC239B00C3589B690E
:10512000002B04D0007C6A46911D98477CE7210043
:10513000FFF758FF85E72100FFF754FF81E7037C65
:10514000002B07D1AD239B00C3585B6B6A46901DB3
:10515000984769E72100FFF745FF72E7037C002BC2
:1051600009D1AD239B00C3581B6B6A46901D98471D
:105170000723437058E72100FFF734FF61E7210060
:105180002800FFF72FFF5CE7191C934200D9111C80
:105190008AB26B46D9800100280000F077FA4CE70C
:1051A000280000F0A2FA4CE7705B0008905B000852
:1051B00070B504008B88002B23D1CB88002B20D125
:1051C0004B887F2B1DD87F251D40A7239B00C35CE8
:1051D000032B0ED00D4BC5542900FBF78EFE20008B
:1051E00000F083FA002D07D0A7239B000222E2548F
:1051F0000AE0FFF7F7FE07E0A7239B000122E25435
:1052000002E02000FFF7EEFE70BDC0469E020000E7
:1052100070B504000D0089782A4B197001290FD848
:10522000A7239B00C35C022B0ED0032B23D02900A5
:10523000FFF7D8FE234B19782000FFF74BFD02E063
:105240002900FFF7CFFE70BD002911D04160A723D0
:105250009B000322C254FFF72EFD022803D020003A
:1052600000F043FAEFE729002000FFF7BBFEEAE772
:1052700000F03BFAE7E7002911D0436899421ED0BD
:10528000D9B2FFF727FD0F4B197861602000FFF7B7
:1052900012FD02280ED0200000F027FAD3E7A72342
:1052A0009B000222C2544160FFF714FD200000F071
:1052B0001CFAC8E729002000FFF794FEC3E700F0BE
:1052C00014FAC0E75004002010B5CB88012B0BD195
:1052D000A7239B00C35C022B09D9032B09D1011D15
:1052E000012200F0D3F901E0FFF77CFE10BD002B96
:1052F00002D1FFF777FEF9E7002383600100083150
:10530000012200F0C3F9F1E710B5A7239B00C35CAD
:10531000013B022B14D8CB88022B0ED10123C36092
:10532000A9239B00C358002B01D00323C3600100B5
:105330000C31022200F0AAF910BDFFF753FEFBE783
:10534000FFF750FEF8E710B5A7239B00C35C013BB5
:10535000022B0AD84B88012B00D010BDA9239B003B
:105360000022C25000F0C1F9F7E7FFF73BFEF4E777
:1053700010B50A7860231340202B06D0402B04D0B0
:10538000002B09D0FFF72EFE04E0AD239B00C3588D
:105390009B689847002010BD4B78092B18D89B00BC
:1053A0000D4AD3589F46FFF727FEF3E7FFF700FFAC
:1053B000F0E7FFF72DFFEDE7FFF786FFEAE7FFF7DE
:1053C000A3FFE7E7FFF7EEFDE4E7FFF7BCFFE1E748
:1053D000FFF708FEDEE7C046A85B000870B50500D1
:1053E0000C000A7860231340202B07D0402B05D0F7
:1053F000002B03D0FFF7F6FD002070BDA7239B0014
:10540000EB5C013B022B17D82379012B0FD8AD237E
:105410009B00EB589B68210028009847E388002BED
:10542000EAD10028E8D1280000F05FF9E4E7210084
:105430002800FFF7D7FDDFE721002800FFF7D2FDA6
:10544000DAE770B5050088880A790B7860241C407B
:10545000202C08D0402C06D0002C0DD02800FFF7BF
:10546000C1FD002406E0AD239B00EB589B6828009B
:1054700098470024200070BD202C0AD04E78012EC1
:105480003ED0032E0DD0002E64D02800FFF7AAFDD9
:10549000F0E7AD239B00EB589B6828009847040079
:1054A000E8E7A7239B00EB5C022B05D0032B14D06D
:1054B0002800FFF797FDDDE7002A01D0802A03D1FD
:1054C0002800FFF78FFDD5E711002800FBF7EAFC65
:1054D00080212800FBF7E6FCCCE74B88002B06D1A7
:1054E000002A04D0802A02D0CB88002B03D02800C9
:1054F00000F0FBF8BEE711002800FBF7D3FCF6E74D
:10550000A7239B00EB5C022B05D0032B14D02800B3
:10551000FFF768FDAEE7002A01D0802A03D12800FA
:10552000FFF760FDA6E711002800FBF7BBFC802118
:105530002800FBF7B7FC9DE74B88002B9AD1530658
:1055400003D1280000F0D1F894E711002800FBF700
:10555000B2FCF6E7A7239B00EB5C022B06D0032BE3
:1055600029D02800FFF73EFD340083E7002A01D050
:10557000802A12D1030615D47F210A409100891890
:1055800089005131FF316918043100230B60022278
:10559000280000F07BF834006CE72800FFF722FDBC
:1055A000340067E77F210A40910089188900103193
:1055B00069180431E9E744B2030622D40F201040F1
:1055C00083001B189B00EB185933FF331B68002B1B
:1055D00025D0002C28DB7F2313409C00E418A40076
:1055E0005134FF342C190434002A01D0802A24D1EC
:1055F0000023236002222100280000F047F8340035
:1056000038E70F20104083001B189B00EB189B69A4
:10561000002BDED12800FFF7E5FC34002AE7280044
:10562000FFF7E0FC340025E77F2313409C00E418DB
:10563000A40010342C190434D6E711002800FBF71D
:1056400043FC002802D001232360D3E7002323601A
:10565000D0E770B504000D001600002815D0FFF744
:1056600097FC013040003080287003236B70013BB1
:1056700008E001345A1CD2B2E8540233DBB2AA1853
:105680000021117020780028F3D170BD10B51300EF
:10569000A522920002248450C36103620A00002103
:1056A000FBF734FC002010BD10B513000A000021E8
:1056B000FBF72CFC002010BD10B51300A5229200B2
:1056C00003248450393AFF3A8350043283500A004D
:1056D0000021FBF724FC002010BD10B513000A00C8
:1056E0000021FBF71CFC002010BD10B5A5239B007A
:1056F0000422C250002300220021FBF707FC0020F7
:1057000010BD10B5A5239B000522C2500023002226
:105710000021FBF704FC002010BD000010B5AE23F3
:105720009B00C4580433C358002B0DD08022920034
:10573000A05CFF2808D09B68044AA25C210098471F
:1057400080239B00FF22E254002010BD01020000D4
:1057500043230380004870471C010020432303803B
:1057600000487047600100204323038000487047D1
:10577000B00100200A23038000487047A4010020E4
:1057800070B50400AE25AD004659FBF7D1FB83236D
:105790009B00F0506359002B0BD0AF239B00E358C4
:1057A000DB6883229200B118083AB058984700206D
:1057B00070BD0220FCE770B504000D00AE239B0015
:1057C000C6580833C258002E21D08B005B189B00AE
:1057D000C318D869002808D08B005B18DB00D318E9
:1057E000996BFAF7B5FD002905D085239B000022AF
:1057F000F250002070BDAB005B199B00E318002243
:10580000DA61002329002000FBF780FBF1E702208A
:10581000F0E70000F0B583B005000C00AE239B005C
:10582000C75800236A46D37101AA13800B786022FF
:1058300016001E401A422BD0202E5BD1CA88002AA7
:105840001DD05BB2002B0DDAAF239B00C3589B68C1
:10585000487839009847E28839002800FFF716FF9A
:1058600000264AE04A7880239B00FA548A79244B28
:10587000FA54CA883900FFF71FFF00263DE0AF2326
:105880009B00C3589B68487800229847002634E064
:105890004F780A2F16D00B2F23D0002F03D0FFF7FD
:1058A000A1FB022629E0A7239B00C35C032B03D0A6
:1058B000FFF798FB022620E0022201A9FFF7E6FE8F
:1058C0003E001AE0A7239B00C35C032B03D0FFF725
:1058D00089FB022611E001226B46D91DFFF7D6FE97
:1058E0000BE0A7239B00C35C032B06D0FFF77AFBDA
:1058F000022602E0FFF776FB0226300003B0F0BD7F
:105900000102000070B504008121FBF7C2FA0025F6
:10591000E56201212000FBF7BCFAB6235B00E550ED
:1059200082212000FBF7B5FA2564AE239B00E358E3
:10593000002B0BD0AF239B00E3585B689847AE2544
:10594000AD006059FBF700FB00236351002070BDE0
:1059500070B50400037C002B3AD18026B6003300DA
:1059600002228121FBF789FA0125E5623300022238
:1059700001212000FBF781FAB6235B00E5500823E4
:10598000032282212000FBF778FA01232364872079
:105990008000FBF7D5FA0500AE239B00E0500028FD
:1059A00032D00433E3581B689847002385229200C5
:1059B000AB500432AB50267C002E1AD18033143AFF
:1059C000AA589B0001212000FBF7A9FA300070BD06
:1059D000402302228121FBF750FA0125E562402392
:1059E000022201212000FBF748FAB6235B00E550B4
:1059F000C5E781239B00EA58C53BFF3B01212000FE
:105A0000FBF78DFA0026E1E70126DFE7002904D045
:105A1000AF239B00C150002070470220FCE7AE235B
:105A20009B00C358822080001950842189005A505D
:105A300000207047AE239B00C258B43BD1500020D9
:105A4000704710B5AE239B00C258002A15D0037CC6
:105A5000002B09D180338121890052589B000121FC
:105A6000FBF75DFA002010BD81239B00D258C53B97
:105A7000FF3B0121FBF753FAF4E70220F3E70000B4
:105A80000D4885460D480E490E4A002302E0D458C1
:105A9000C4500433C4188C42F9D30B4A0B4C002376
:105AA00001E013600432A242FBD3FFF7D9F8FAF702
:105AB00053FBFAF7CFFDFEE7004000200000002076
:105AC000F4010020D85B0008F4010020D415002068
:105AD000FEE70000F8B5C046F8BC08BC9E4670471B
